{
  "contractName": "StructStorage",
  "abi": [
    {
      "constant": true,
      "inputs": [
        {
          "name": "",
          "type": "uint256"
        }
      ],
      "name": "db",
      "outputs": [
        {
          "name": "did",
          "type": "bytes"
        },
        {
          "name": "dname",
          "type": "bytes32"
        },
        {
          "name": "dproduct",
          "type": "bytes32"
        },
        {
          "name": "dcontact",
          "type": "uint256"
        },
        {
          "name": "origin",
          "type": "bytes32"
        },
        {
          "name": "destination",
          "type": "bytes32"
        }
      ],
      "payable": false,
      "stateMutability": "view",
      "type": "function",
      "signature": "0x2b551c40"
    },
    {
      "constant": true,
      "inputs": [
        {
          "name": "",
          "type": "uint256"
        }
      ],
      "name": "l",
      "outputs": [
        {
          "name": "lotno",
          "type": "bytes"
        },
        {
          "name": "grade",
          "type": "bytes"
        },
        {
          "name": "mrp",
          "type": "uint256"
        },
        {
          "name": "testdate",
          "type": "bytes32"
        },
        {
          "name": "expdate",
          "type": "bytes32"
        }
      ],
      "payable": false,
      "stateMutability": "view",
      "type": "function",
      "signature": "0x54bb1361"
    },
    {
      "constant": true,
      "inputs": [],
      "name": "m",
      "outputs": [
        {
          "name": "",
          "type": "uint256"
        }
      ],
      "payable": false,
      "stateMutability": "view",
      "type": "function",
      "signature": "0x5a2ee019"
    },
    {
      "constant": true,
      "inputs": [],
      "name": "r",
      "outputs": [
        {
          "name": "",
          "type": "uint256"
        }
      ],
      "payable": false,
      "stateMutability": "view",
      "type": "function",
      "signature": "0x6c8ae38c"
    },
    {
      "constant": true,
      "inputs": [
        {
          "name": "",
          "type": "uint256"
        }
      ],
      "name": "sp",
      "outputs": [
        {
          "name": "sid",
          "type": "bytes"
        },
        {
          "name": "sname",
          "type": "bytes32"
        },
        {
          "name": "sloc",
          "type": "bytes32"
        },
        {
          "name": "material",
          "type": "bytes32"
        },
        {
          "name": "scontact",
          "type": "uint256"
        },
        {
          "name": "sexprice",
          "type": "uint256"
        }
      ],
      "payable": false,
      "stateMutability": "view",
      "type": "function",
      "signature": "0x71c8dbcd"
    },
    {
      "constant": true,
      "inputs": [],
      "name": "tester",
      "outputs": [
        {
          "name": "",
          "type": "address"
        }
      ],
      "payable": false,
      "stateMutability": "view",
      "type": "function",
      "signature": "0x8308abd4"
    },
    {
      "constant": true,
      "inputs": [],
      "name": "s",
      "outputs": [
        {
          "name": "",
          "type": "uint256"
        }
      ],
      "payable": false,
      "stateMutability": "view",
      "type": "function",
      "signature": "0x86b714e2"
    },
    {
      "constant": true,
      "inputs": [],
      "name": "d",
      "outputs": [
        {
          "name": "",
          "type": "uint256"
        }
      ],
      "payable": false,
      "stateMutability": "view",
      "type": "function",
      "signature": "0x8a054ac2"
    },
    {
      "constant": true,
      "inputs": [],
      "name": "t",
      "outputs": [
        {
          "name": "",
          "type": "uint256"
        }
      ],
      "payable": false,
      "stateMutability": "view",
      "type": "function",
      "signature": "0x92d0d153"
    },
    {
      "constant": true,
      "inputs": [
        {
          "name": "",
          "type": "uint256"
        }
      ],
      "name": "rt",
      "outputs": [
        {
          "name": "rid",
          "type": "bytes"
        },
        {
          "name": "rname",
          "type": "bytes32"
        },
        {
          "name": "rloc",
          "type": "bytes32"
        },
        {
          "name": "rproduct",
          "type": "bytes32"
        },
        {
          "name": "rcontact",
          "type": "uint256"
        },
        {
          "name": "rexprice",
          "type": "uint256"
        }
      ],
      "payable": false,
      "stateMutability": "view",
      "type": "function",
      "signature": "0xe3952292"
    },
    {
      "constant": true,
      "inputs": [
        {
          "name": "",
          "type": "uint256"
        }
      ],
      "name": "mf",
      "outputs": [
        {
          "name": "mid",
          "type": "bytes"
        },
        {
          "name": "mname",
          "type": "bytes32"
        },
        {
          "name": "mloc",
          "type": "bytes32"
        },
        {
          "name": "mproduct",
          "type": "bytes32"
        },
        {
          "name": "mcontact",
          "type": "uint256"
        },
        {
          "name": "mexprice",
          "type": "uint256"
        }
      ],
      "payable": false,
      "stateMutability": "view",
      "type": "function",
      "signature": "0xed7417bf"
    },
    {
      "constant": false,
      "inputs": [
        {
          "name": "addr",
          "type": "address"
        }
      ],
      "name": "fundaddr",
      "outputs": [],
      "payable": false,
      "stateMutability": "nonpayable",
      "type": "function",
      "signature": "0xfb5ade31"
    },
    {
      "constant": false,
      "inputs": [
        {
          "name": "receiver",
          "type": "address"
        },
        {
          "name": "amount",
          "type": "uint256"
        },
        {
          "name": "sender",
          "type": "address"
        }
      ],
      "name": "sendCoin",
      "outputs": [
        {
          "name": "sufficient",
          "type": "bool"
        }
      ],
      "payable": false,
      "stateMutability": "nonpayable",
      "type": "function",
      "signature": "0xb81e3a50"
    },
    {
      "constant": true,
      "inputs": [
        {
          "name": "addr",
          "type": "address"
        }
      ],
      "name": "getBalance",
      "outputs": [
        {
          "name": "",
          "type": "uint256"
        }
      ],
      "payable": false,
      "stateMutability": "view",
      "type": "function",
      "signature": "0xf8b2cb4f"
    },
    {
      "constant": false,
      "inputs": [
        {
          "name": "sid",
          "type": "bytes"
        },
        {
          "name": "sname",
          "type": "bytes32"
        },
        {
          "name": "sloc",
          "type": "bytes32"
        },
        {
          "name": "material",
          "type": "bytes32"
        },
        {
          "name": "scon",
          "type": "uint256"
        },
        {
          "name": "spr",
          "type": "uint256"
        }
      ],
      "name": "mat",
      "outputs": [],
      "payable": false,
      "stateMutability": "nonpayable",
      "type": "function",
      "signature": "0x089e1eeb"
    },
    {
      "constant": false,
      "inputs": [
        {
          "name": "mid",
          "type": "bytes"
        },
        {
          "name": "mname",
          "type": "bytes32"
        },
        {
          "name": "mloc",
          "type": "bytes32"
        },
        {
          "name": "mpro",
          "type": "bytes32"
        },
        {
          "name": "mcon",
          "type": "uint256"
        },
        {
          "name": "mpr",
          "type": "uint256"
        }
      ],
      "name": "pro",
      "outputs": [],
      "payable": false,
      "stateMutability": "nonpayable",
      "type": "function",
      "signature": "0x68c83371"
    },
    {
      "constant": false,
      "inputs": [
        {
          "name": "did",
          "type": "bytes"
        },
        {
          "name": "dname",
          "type": "bytes32"
        },
        {
          "name": "spro",
          "type": "bytes32"
        },
        {
          "name": "dcon",
          "type": "uint256"
        },
        {
          "name": "org",
          "type": "bytes32"
        },
        {
          "name": "dst",
          "type": "bytes32"
        }
      ],
      "name": "ship_info",
      "outputs": [],
      "payable": false,
      "stateMutability": "nonpayable",
      "type": "function",
      "signature": "0xa52a36a1"
    },
    {
      "constant": false,
      "inputs": [
        {
          "name": "rid",
          "type": "bytes"
        },
        {
          "name": "rname",
          "type": "bytes32"
        },
        {
          "name": "rloc",
          "type": "bytes32"
        },
        {
          "name": "rpro",
          "type": "bytes32"
        },
        {
          "name": "rcon",
          "type": "uint256"
        },
        {
          "name": "rpr",
          "type": "uint256"
        }
      ],
      "name": "goods",
      "outputs": [],
      "payable": false,
      "stateMutability": "nonpayable",
      "type": "function",
      "signature": "0x24ee0452"
    },
    {
      "constant": true,
      "inputs": [
        {
          "name": "i",
          "type": "bytes"
        }
      ],
      "name": "getmat",
      "outputs": [
        {
          "name": "",
          "type": "bytes"
        },
        {
          "name": "",
          "type": "bytes32"
        },
        {
          "name": "",
          "type": "bytes32"
        },
        {
          "name": "",
          "type": "bytes32"
        },
        {
          "name": "",
          "type": "uint256"
        },
        {
          "name": "",
          "type": "uint256"
        }
      ],
      "payable": false,
      "stateMutability": "view",
      "type": "function",
      "signature": "0xf7393617"
    },
    {
      "constant": true,
      "inputs": [
        {
          "name": "i",
          "type": "bytes"
        }
      ],
      "name": "getpro",
      "outputs": [
        {
          "name": "",
          "type": "bytes"
        },
        {
          "name": "",
          "type": "bytes32"
        },
        {
          "name": "",
          "type": "bytes32"
        },
        {
          "name": "",
          "type": "bytes32"
        },
        {
          "name": "",
          "type": "uint256"
        },
        {
          "name": "",
          "type": "uint256"
        }
      ],
      "payable": false,
      "stateMutability": "view",
      "type": "function",
      "signature": "0x8d372528"
    },
    {
      "constant": true,
      "inputs": [
        {
          "name": "i",
          "type": "bytes"
        }
      ],
      "name": "getshipinfo",
      "outputs": [
        {
          "name": "",
          "type": "bytes"
        },
        {
          "name": "",
          "type": "bytes32"
        },
        {
          "name": "",
          "type": "bytes32"
        },
        {
          "name": "",
          "type": "uint256"
        },
        {
          "name": "",
          "type": "bytes32"
        },
        {
          "name": "",
          "type": "bytes32"
        }
      ],
      "payable": false,
      "stateMutability": "view",
      "type": "function",
      "signature": "0x28c4469a"
    },
    {
      "constant": true,
      "inputs": [
        {
          "name": "i",
          "type": "bytes"
        }
      ],
      "name": "getgoods",
      "outputs": [
        {
          "name": "",
          "type": "bytes"
        },
        {
          "name": "",
          "type": "bytes32"
        },
        {
          "name": "",
          "type": "bytes32"
        },
        {
          "name": "",
          "type": "bytes32"
        },
        {
          "name": "",
          "type": "uint256"
        },
        {
          "name": "",
          "type": "uint256"
        }
      ],
      "payable": false,
      "stateMutability": "view",
      "type": "function",
      "signature": "0x580e5c61"
    },
    {
      "constant": false,
      "inputs": [
        {
          "name": "ll",
          "type": "bytes"
        },
        {
          "name": "g",
          "type": "bytes"
        },
        {
          "name": "p",
          "type": "uint256"
        },
        {
          "name": "tt",
          "type": "bytes32"
        },
        {
          "name": "e",
          "type": "bytes32"
        }
      ],
      "name": "quality",
      "outputs": [],
      "payable": false,
      "stateMutability": "nonpayable",
      "type": "function",
      "signature": "0x04eb580c"
    },
    {
      "constant": true,
      "inputs": [
        {
          "name": "k",
          "type": "bytes"
        }
      ],
      "name": "getquality",
      "outputs": [
        {
          "name": "",
          "type": "bytes"
        },
        {
          "name": "",
          "type": "bytes"
        },
        {
          "name": "",
          "type": "uint256"
        },
        {
          "name": "",
          "type": "bytes32"
        },
        {
          "name": "",
          "type": "bytes32"
        }
      ],
      "payable": false,
      "stateMutability": "view",
      "type": "function",
      "signature": "0x5ef53ded"
    }
  ],
  "bytecode": "0x608060405260016000556001805560016002556001600355600160045534801561002857600080fd5b50613684806100386000396000f3fe60806040526004361061013e576000357c0100000000000000000000000000000000000000000000000000000000900463ffffffff16806304eb580c14610143578063089e1eeb146102c057806324ee0452146103ba57806328c4469a146104b45780632b551c401461061857806354bb1361146106ef578063580e5c61146108245780635a2ee019146109885780635ef53ded146109b357806368c8337114610b755780636c8ae38c14610c6f57806371c8dbcd14610c9a5780638308abd414610d7157806386b714e214610dc85780638a054ac214610df35780638d37252814610e1e57806392d0d15314610f82578063a52a36a114610fad578063b81e3a50146110a7578063e39522921461113a578063ed7417bf14611211578063f7393617146112e8578063f8b2cb4f1461144c578063fb5ade31146114b1575b600080fd5b34801561014f57600080fd5b506102be600480360360a081101561016657600080fd5b810190808035906020019064010000000081111561018357600080fd5b82018360208201111561019557600080fd5b803590602001918460018302840111640100000000831117156101b757600080fd5b91908080601f016020809104026020016040519081016040528093929190818152602001838380828437600081840152601f19601f8201169050808301925050505050505091929192908035906020019064010000000081111561021a57600080fd5b82018360208201111561022c57600080fd5b8035906020019184600183028401116401000000008311171561024e57600080fd5b91908080601f016020809104026020016040519081016040528093929190818152602001838380828437600081840152601f19601f820116905080830192505050505050509192919290803590602001909291908035906020019092919080359060200190929190505050611502565b005b3480156102cc57600080fd5b506103b8600480360360c08110156102e357600080fd5b810190808035906020019064010000000081111561030057600080fd5b82018360208201111561031257600080fd5b8035906020019184600183028401116401000000008311171561033457600080fd5b91908080601f016020809104026020016040519081016040528093929190818152602001838380828437600081840152601f19601f820116905080830192505050505050509192919290803590602001909291908035906020019092919080359060200190929190803590602001909291908035906020019092919050505061169e565b005b3480156103c657600080fd5b506104b2600480360360c08110156103dd57600080fd5b81019080803590602001906401000000008111156103fa57600080fd5b82018360208201111561040c57600080fd5b8035906020019184600183028401116401000000008311171561042e57600080fd5b91908080601f016020809104026020016040519081016040528093929190818152602001838380828437600081840152601f19601f820116905080830192505050505050509192919290803590602001909291908035906020019092919080359060200190929190803590602001909291908035906020019092919050505061182e565b005b3480156104c057600080fd5b5061057a600480360360208110156104d757600080fd5b81019080803590602001906401000000008111156104f457600080fd5b82018360208201111561050657600080fd5b8035906020019184600183028401116401000000008311171561052857600080fd5b91908080601f016020809104026020016040519081016040528093929190818152602001838380828437600081840152601f19601f8201169050808301925050505050505091929192905050506119bf565b6040518080602001878152602001868152602001858152602001848152602001838152602001828103825288818151815260200191508051906020019080838360005b838110156105d85780820151818401526020810190506105bd565b50505050905090810190601f1680156106055780820380516001836020036101000a031916815260200191505b5097505050505050505060405180910390f35b34801561062457600080fd5b506106516004803603602081101561063b57600080fd5b8101908080359060200190929190505050611d13565b6040518080602001878152602001868152602001858152602001848152602001838152602001828103825288818151815260200191508051906020019080838360005b838110156106af578082015181840152602081019050610694565b50505050905090810190601f1680156106dc5780820380516001836020036101000a031916815260200191505b5097505050505050505060405180910390f35b3480156106fb57600080fd5b506107286004803603602081101561071257600080fd5b8101908080359060200190929190505050611df6565b604051808060200180602001868152602001858152602001848152602001838103835288818151815260200191508051906020019080838360005b8381101561077e578082015181840152602081019050610763565b50505050905090810190601f1680156107ab5780820380516001836020036101000a031916815260200191505b50838103825287818151815260200191508051906020019080838360005b838110156107e45780820151818401526020810190506107c9565b50505050905090810190601f1680156108115780820380516001836020036101000a031916815260200191505b5097505050505050505060405180910390f35b34801561083057600080fd5b506108ea6004803603602081101561084757600080fd5b810190808035906020019064010000000081111561086457600080fd5b82018360208201111561087657600080fd5b8035906020019184600183028401116401000000008311171561089857600080fd5b91908080601f016020809104026020016040519081016040528093929190818152602001838380828437600081840152601f19601f820116905080830192505050505050509192919290505050611f6b565b6040518080602001878152602001868152602001858152602001848152602001838152602001828103825288818151815260200191508051906020019080838360005b8381101561094857808201518184015260208101905061092d565b50505050905090810190601f1680156109755780820380516001836020036101000a031916815260200191505b5097505050505050505060405180910390f35b34801561099457600080fd5b5061099d6122bf565b6040518082815260200191505060405180910390f35b3480156109bf57600080fd5b50610a79600480360360208110156109d657600080fd5b81019080803590602001906401000000008111156109f357600080fd5b820183602082011115610a0557600080fd5b80359060200191846001830284011164010000000083111715610a2757600080fd5b91908080601f016020809104026020016040519081016040528093929190818152602001838380828437600081840152601f19601f8201169050808301925050505050505091929192905050506122c5565b604051808060200180602001868152602001858152602001848152602001838103835288818151815260200191508051906020019080838360005b83811015610acf578082015181840152602081019050610ab4565b50505050905090810190601f168015610afc5780820380516001836020036101000a031916815260200191505b50838103825287818151815260200191508051906020019080838360005b83811015610b35578082015181840152602081019050610b1a565b50505050905090810190601f168015610b625780820380516001836020036101000a031916815260200191505b5097505050505050505060405180910390f35b348015610b8157600080fd5b50610c6d600480360360c0811015610b9857600080fd5b8101908080359060200190640100000000811115610bb557600080fd5b820183602082011115610bc757600080fd5b80359060200191846001830284011164010000000083111715610be957600080fd5b91908080601f016020809104026020016040519081016040528093929190818152602001838380828437600081840152601f19601f8201169050808301925050505050505091929192908035906020019092919080359060200190929190803590602001909291908035906020019092919080359060200190929190505050612641565b005b348015610c7b57600080fd5b50610c846127d2565b6040518082815260200191505060405180910390f35b348015610ca657600080fd5b50610cd360048036036020811015610cbd57600080fd5b81019080803590602001909291905050506127d8565b6040518080602001878152602001868152602001858152602001848152602001838152602001828103825288818151815260200191508051906020019080838360005b83811015610d31578082015181840152602081019050610d16565b50505050905090810190601f168015610d5e5780820380516001836020036101000a031916815260200191505b5097505050505050505060405180910390f35b348015610d7d57600080fd5b50610d866128bb565b604051808273ffffffffffffffffffffffffffffffffffffffff1673ffffffffffffffffffffffffffffffffffffffff16815260200191505060405180910390f35b348015610dd457600080fd5b50610ddd6128e1565b6040518082815260200191505060405180910390f35b348015610dff57600080fd5b50610e086128e7565b6040518082815260200191505060405180910390f35b348015610e2a57600080fd5b50610ee460048036036020811015610e4157600080fd5b8101908080359060200190640100000000811115610e5e57600080fd5b820183602082011115610e7057600080fd5b80359060200191846001830284011164010000000083111715610e9257600080fd5b91908080601f016020809104026020016040519081016040528093929190818152602001838380828437600081840152601f19601f8201169050808301925050505050505091929192905050506128ed565b6040518080602001878152602001868152602001858152602001848152602001838152602001828103825288818151815260200191508051906020019080838360005b83811015610f42578082015181840152602081019050610f27565b50505050905090810190601f168015610f6f5780820380516001836020036101000a031916815260200191505b5097505050505050505060405180910390f35b348015610f8e57600080fd5b50610f97612c41565b6040518082815260200191505060405180910390f35b348015610fb957600080fd5b506110a5600480360360c0811015610fd057600080fd5b8101908080359060200190640100000000811115610fed57600080fd5b820183602082011115610fff57600080fd5b8035906020019184600183028401116401000000008311171561102157600080fd5b91908080601f016020809104026020016040519081016040528093929190818152602001838380828437600081840152601f19601f8201169050808301925050505050505091929192908035906020019092919080359060200190929190803590602001909291908035906020019092919080359060200190929190505050612c47565b005b3480156110b357600080fd5b50611120600480360360608110156110ca57600080fd5b81019080803573ffffffffffffffffffffffffffffffffffffffff16906020019092919080359060200190929190803573ffffffffffffffffffffffffffffffffffffffff169060200190929190505050612dd6565b604051808215151515815260200191505060405180910390f35b34801561114657600080fd5b506111736004803603602081101561115d57600080fd5b8101908080359060200190929190505050612ece565b6040518080602001878152602001868152602001858152602001848152602001838152602001828103825288818151815260200191508051906020019080838360005b838110156111d15780820151818401526020810190506111b6565b50505050905090810190601f1680156111fe5780820380516001836020036101000a031916815260200191505b5097505050505050505060405180910390f35b34801561121d57600080fd5b5061124a6004803603602081101561123457600080fd5b8101908080359060200190929190505050612fb1565b6040518080602001878152602001868152602001858152602001848152602001838152602001828103825288818151815260200191508051906020019080838360005b838110156112a857808201518184015260208101905061128d565b50505050905090810190601f1680156112d55780820380516001836020036101000a031916815260200191505b5097505050505050505060405180910390f35b3480156112f457600080fd5b506113ae6004803603602081101561130b57600080fd5b810190808035906020019064010000000081111561132857600080fd5b82018360208201111561133a57600080fd5b8035906020019184600183028401116401000000008311171561135c57600080fd5b91908080601f016020809104026020016040519081016040528093929190818152602001838380828437600081840152601f19601f820116905080830192505050505050509192919290505050613094565b6040518080602001878152602001868152602001858152602001848152602001838152602001828103825288818151815260200191508051906020019080838360005b8381101561140c5780820151818401526020810190506113f1565b50505050905090810190601f1680156114395780820380516001836020036101000a031916815260200191505b5097505050505050505060405180910390f35b34801561145857600080fd5b5061149b6004803603602081101561146f57600080fd5b81019080803573ffffffffffffffffffffffffffffffffffffffff1690602001909291905050506133e8565b6040518082815260200191505060405180910390f35b3480156114bd57600080fd5b50611500600480360360208110156114d457600080fd5b81019080803573ffffffffffffffffffffffffffffffffffffffff169060200190929190505050613431565b005b61150a61347a565b60a060405190810160405280878152602001868152602001858152602001848152602001838152509050806011876040518082805190602001908083835b60208310151561156d5780518252602082019150602081019050602083039250611548565b6001836020036101000a038019825116818451168082178552505050505050905001915050908152602001604051809103902060008201518160000190805190602001906115bc9291906134b0565b5060208201518160010190805190602001906115d99291906134b0565b506040820151816002015560608201518160030155608082015181600401559050506012819080600181540180825580915050906001820390600052602060002090600502016000909192909190915060008201518160000190805190602001906116459291906134b0565b5060208201518160010190805190602001906116629291906134b0565b50604082015181600201556060820151816003015560808201518160040155505050600460008154809291906001019190505550505050505050565b6116a6613530565b60c060405190810160405280888152602001878152602001868152602001858152602001848152602001838152509050806009886040518082805190602001908083835b60208310151561170f57805182526020820191506020810190506020830392506116ea565b6001836020036101000a0380198251168184511680821785525050505050509050019150509081526020016040518091039020600082015181600001908051906020019061175e9291906134b0565b506020820151816001015560408201518160020155606082015181600301556080820151816004015560a08201518160050155905050600a819080600181540180825580915050906001820390600052602060002090600602016000909192909190915060008201518160000190805190602001906117de9291906134b0565b506020820151816001015560408201518160020155606082015181600301556080820151816004015560a08201518160050155505050600080815480929190600101919050555050505050505050565b611836613570565b60c06040519081016040528088815260200187815260200186815260200185815260200184815260200183815250905080600f886040518082805190602001908083835b60208310151561189f578051825260208201915060208101905060208303925061187a565b6001836020036101000a038019825116818451168082178552505050505050905001915050908152602001604051809103902060008201518160000190805190602001906118ee9291906134b0565b506020820151816001015560408201518160020155606082015181600301556080820151816004015560a0820151816005015590505060108190806001815401808255809150509060018203906000526020600020906006020160009091929091909150600082015181600001908051906020019061196e9291906134b0565b506020820151816001015560408201518160020155606082015181600301556080820151816004015560a0820151816005015550505060036000815480929190600101919050555050505050505050565b60606000806000806000600d876040518082805190602001908083835b602083101515611a0157805182526020820191506020810190506020830392506119dc565b6001836020036101000a0380198251168184511680821785525050505050509050019150509081526020016040518091039020600001600d886040518082805190602001908083835b602083101515611a6f5780518252602082019150602081019050602083039250611a4a565b6001836020036101000a038019825116818451168082178552505050505050905001915050908152602001604051809103902060010154600d896040518082805190602001908083835b602083101515611ade5780518252602082019150602081019050602083039250611ab9565b6001836020036101000a038019825116818451168082178552505050505050905001915050908152602001604051809103902060020154600d8a6040518082805190602001908083835b602083101515611b4d5780518252602082019150602081019050602083039250611b28565b6001836020036101000a038019825116818451168082178552505050505050905001915050908152602001604051809103902060030154600d8b6040518082805190602001908083835b602083101515611bbc5780518252602082019150602081019050602083039250611b97565b6001836020036101000a038019825116818451168082178552505050505050905001915050908152602001604051809103902060040154600d8c6040518082805190602001908083835b602083101515611c2b5780518252602082019150602081019050602083039250611c06565b6001836020036101000a038019825116818451168082178552505050505050905001915050908152602001604051809103902060050154858054600181600116156101000203166002900480601f016020809104026020016040519081016040528092919081815260200182805460018160011615610100020316600290048015611cf75780601f10611ccc57610100808354040283529160200191611cf7565b820191906000526020600020905b815481529060010190602001808311611cda57829003601f168201915b5050505050955095509550955095509550955091939550919395565b600e81815481101515611d2257fe5b9060005260206000209060060201600091509050806000018054600181600116156101000203166002900480601f016020809104026020016040519081016040528092919081815260200182805460018160011615610100020316600290048015611dce5780601f10611da357610100808354040283529160200191611dce565b820191906000526020600020905b815481529060010190602001808311611db157829003601f168201915b5050505050908060010154908060020154908060030154908060040154908060050154905086565b601281815481101515611e0557fe5b9060005260206000209060050201600091509050806000018054600181600116156101000203166002900480601f016020809104026020016040519081016040528092919081815260200182805460018160011615610100020316600290048015611eb15780601f10611e8657610100808354040283529160200191611eb1565b820191906000526020600020905b815481529060010190602001808311611e9457829003601f168201915b505050505090806001018054600181600116156101000203166002900480601f016020809104026020016040519081016040528092919081815260200182805460018160011615610100020316600290048015611f4f5780601f10611f2457610100808354040283529160200191611f4f565b820191906000526020600020905b815481529060010190602001808311611f3257829003601f168201915b5050505050908060020154908060030154908060040154905085565b60606000806000806000600f876040518082805190602001908083835b602083101515611fad5780518252602082019150602081019050602083039250611f88565b6001836020036101000a0380198251168184511680821785525050505050509050019150509081526020016040518091039020600001600f886040518082805190602001908083835b60208310151561201b5780518252602082019150602081019050602083039250611ff6565b6001836020036101000a038019825116818451168082178552505050505050905001915050908152602001604051809103902060010154600f896040518082805190602001908083835b60208310151561208a5780518252602082019150602081019050602083039250612065565b6001836020036101000a038019825116818451168082178552505050505050905001915050908152602001604051809103902060020154600f8a6040518082805190602001908083835b6020831015156120f957805182526020820191506020810190506020830392506120d4565b6001836020036101000a038019825116818451168082178552505050505050905001915050908152602001604051809103902060030154600f8b6040518082805190602001908083835b6020831015156121685780518252602082019150602081019050602083039250612143565b6001836020036101000a038019825116818451168082178552505050505050905001915050908152602001604051809103902060040154600f8c6040518082805190602001908083835b6020831015156121d757805182526020820191506020810190506020830392506121b2565b6001836020036101000a038019825116818451168082178552505050505050905001915050908152602001604051809103902060050154858054600181600116156101000203166002900480601f0160208091040260200160405190810160405280929190818152602001828054600181600116156101000203166002900480156122a35780601f10612278576101008083540402835291602001916122a3565b820191906000526020600020905b81548152906001019060200180831161228657829003601f168201915b5050505050955095509550955095509550955091939550919395565b60015481565b60608060008060006011866040518082805190602001908083835b60208310151561230557805182526020820191506020810190506020830392506122e0565b6001836020036101000a03801982511681845116808217855250505050505090500191505090815260200160405180910390206000016011876040518082805190602001908083835b602083101515612373578051825260208201915060208101905060208303925061234e565b6001836020036101000a03801982511681845116808217855250505050505090500191505090815260200160405180910390206001016011886040518082805190602001908083835b6020831015156123e157805182526020820191506020810190506020830392506123bc565b6001836020036101000a0380198251168184511680821785525050505050509050019150509081526020016040518091039020600201546011896040518082805190602001908083835b602083101515612450578051825260208201915060208101905060208303925061242b565b6001836020036101000a03801982511681845116808217855250505050505090500191505090815260200160405180910390206003015460118a6040518082805190602001908083835b6020831015156124bf578051825260208201915060208101905060208303925061249a565b6001836020036101000a038019825116818451168082178552505050505050905001915050908152602001604051809103902060040154848054600181600116156101000203166002900480601f01602080910402602001604051908101604052809291908181526020018280546001816001161561010002031660029004801561258b5780601f106125605761010080835404028352916020019161258b565b820191906000526020600020905b81548152906001019060200180831161256e57829003601f168201915b50505050509450838054600181600116156101000203166002900480601f0160208091040260200160405190810160405280929190818152602001828054600181600116156101000203166002900480156126275780601f106125fc57610100808354040283529160200191612627565b820191906000526020600020905b81548152906001019060200180831161260a57829003601f168201915b505050505093509450945094509450945091939590929450565b6126496135b0565b60c06040519081016040528088815260200187815260200186815260200185815260200184815260200183815250905080600b886040518082805190602001908083835b6020831015156126b2578051825260208201915060208101905060208303925061268d565b6001836020036101000a038019825116818451168082178552505050505050905001915050908152602001604051809103902060008201518160000190805190602001906127019291906134b0565b506020820151816001015560408201518160020155606082015181600301556080820151816004015560a08201518160050155905050600c819080600181540180825580915050906001820390600052602060002090600602016000909192909190915060008201518160000190805190602001906127819291906134b0565b506020820151816001015560408201518160020155606082015181600301556080820151816004015560a0820151816005015550505060016000815480929190600101919050555050505050505050565b60035481565b600a818154811015156127e757fe5b9060005260206000209060060201600091509050806000018054600181600116156101000203166002900480601f0160208091040260200160405190810160405280929190818152602001828054600181600116156101000203166002900480156128935780601f1061286857610100808354040283529160200191612893565b820191906000526020600020905b81548152906001019060200180831161287657829003601f168201915b5050505050908060010154908060020154908060030154908060040154908060050154905086565b600760009054906101000a900473ffffffffffffffffffffffffffffffffffffffff1681565b60005481565b60025481565b60606000806000806000600b876040518082805190602001908083835b60208310151561292f578051825260208201915060208101905060208303925061290a565b6001836020036101000a0380198251168184511680821785525050505050509050019150509081526020016040518091039020600001600b886040518082805190602001908083835b60208310151561299d5780518252602082019150602081019050602083039250612978565b6001836020036101000a038019825116818451168082178552505050505050905001915050908152602001604051809103902060010154600b896040518082805190602001908083835b602083101515612a0c57805182526020820191506020810190506020830392506129e7565b6001836020036101000a038019825116818451168082178552505050505050905001915050908152602001604051809103902060020154600b8a6040518082805190602001908083835b602083101515612a7b5780518252602082019150602081019050602083039250612a56565b6001836020036101000a038019825116818451168082178552505050505050905001915050908152602001604051809103902060030154600b8b6040518082805190602001908083835b602083101515612aea5780518252602082019150602081019050602083039250612ac5565b6001836020036101000a038019825116818451168082178552505050505050905001915050908152602001604051809103902060040154600b8c6040518082805190602001908083835b602083101515612b595780518252602082019150602081019050602083039250612b34565b6001836020036101000a038019825116818451168082178552505050505050905001915050908152602001604051809103902060050154858054600181600116156101000203166002900480601f016020809104026020016040519081016040528092919081815260200182805460018160011615610100020316600290048015612c255780601f10612bfa57610100808354040283529160200191612c25565b820191906000526020600020905b815481529060010190602001808311612c0857829003601f168201915b5050505050955095509550955095509550955091939550919395565b60045481565b612c4f6135f0565b60c06040519081016040528088815260200187815260200186815260200185815260200184815260200183815250905080600d886040518082805190602001908083835b602083101515612cb85780518252602082019150602081019050602083039250612c93565b6001836020036101000a03801982511681845116808217855250505050505090500191505090815260200160405180910390206000820151816000019080519060200190612d079291906134b0565b506020820151816001015560408201518160020155606082015181600301556080820151816004015560a08201518160050155905050600e81908060018154018082558091505090600182039060005260206000209060060201600090919290919091506000820151816000019080519060200190612d879291906134b0565b506020820151816001015560408201518160020155606082015181600301556080820151816004015560a082015181600501555050506002600081546001019190508190555050505050505050565b600082600660008473ffffffffffffffffffffffffffffffffffffffff1673ffffffffffffffffffffffffffffffffffffffff168152602001908152602001600020541015612e285760009050612ec7565b82600660008473ffffffffffffffffffffffffffffffffffffffff1673ffffffffffffffffffffffffffffffffffffffff1681526020019081526020016000206000828254039250508190555082600660008673ffffffffffffffffffffffffffffffffffffffff1673ffffffffffffffffffffffffffffffffffffffff16815260200190815260200160002060008282540192505081905550600190505b9392505050565b601081815481101515612edd57fe5b9060005260206000209060060201600091509050806000018054600181600116156101000203166002900480601f016020809104026020016040519081016040528092919081815260200182805460018160011615610100020316600290048015612f895780601f10612f5e57610100808354040283529160200191612f89565b820191906000526020600020905b815481529060010190602001808311612f6c57829003601f168201915b5050505050908060010154908060020154908060030154908060040154908060050154905086565b600c81815481101515612fc057fe5b9060005260206000209060060201600091509050806000018054600181600116156101000203166002900480601f01602080910402602001604051908101604052809291908181526020018280546001816001161561010002031660029004801561306c5780601f106130415761010080835404028352916020019161306c565b820191906000526020600020905b81548152906001019060200180831161304f57829003601f168201915b5050505050908060010154908060020154908060030154908060040154908060050154905086565b606060008060008060006009876040518082805190602001908083835b6020831015156130d657805182526020820191506020810190506020830392506130b1565b6001836020036101000a03801982511681845116808217855250505050505090500191505090815260200160405180910390206000016009886040518082805190602001908083835b602083101515613144578051825260208201915060208101905060208303925061311f565b6001836020036101000a0380198251168184511680821785525050505050509050019150509081526020016040518091039020600101546009896040518082805190602001908083835b6020831015156131b3578051825260208201915060208101905060208303925061318e565b6001836020036101000a03801982511681845116808217855250505050505090500191505090815260200160405180910390206002015460098a6040518082805190602001908083835b60208310151561322257805182526020820191506020810190506020830392506131fd565b6001836020036101000a03801982511681845116808217855250505050505090500191505090815260200160405180910390206003015460098b6040518082805190602001908083835b602083101515613291578051825260208201915060208101905060208303925061326c565b6001836020036101000a03801982511681845116808217855250505050505090500191505090815260200160405180910390206004015460098c6040518082805190602001908083835b60208310151561330057805182526020820191506020810190506020830392506132db565b6001836020036101000a038019825116818451168082178552505050505050905001915050908152602001604051809103902060050154858054600181600116156101000203166002900480601f0160208091040260200160405190810160405280929190818152602001828054600181600116156101000203166002900480156133cc5780601f106133a1576101008083540402835291602001916133cc565b820191906000526020600020905b8154815290600101906020018083116133af57829003601f168201915b5050505050955095509550955095509550955091939550919395565b6000600660008373ffffffffffffffffffffffffffffffffffffffff1673ffffffffffffffffffffffffffffffffffffffff168152602001908152602001600020549050919050565b6107d0600660008373ffffffffffffffffffffffffffffffffffffffff1673ffffffffffffffffffffffffffffffffffffffff1681526020019081526020016000208190555050565b60a06040519081016040528060608152602001606081526020016000815260200160008019168152602001600080191681525090565b828054600181600116156101000203166002900490600052602060002090601f016020900481019282601f106134f157805160ff191683800117855561351f565b8280016001018555821561351f579182015b8281111561351e578251825591602001919060010190613503565b5b50905061352c9190613633565b5090565b60c0604051908101604052806060815260200160008019168152602001600080191681526020016000801916815260200160008152602001600081525090565b60c0604051908101604052806060815260200160008019168152602001600080191681526020016000801916815260200160008152602001600081525090565b60c0604051908101604052806060815260200160008019168152602001600080191681526020016000801916815260200160008152602001600081525090565b60c0604051908101604052806060815260200160008019168152602001600080191681526020016000815260200160008019168152602001600080191681525090565b61365591905b80821115613651576000816000905550600101613639565b5090565b9056fea165627a7a72305820626d39999365bb0e3b7324c6dc0e6474e370a81faa8aa9d76aa8cfe9b167465d0029",
  "source": "pragma solidity ^0.5.0;\r\n\r\ncontract StructStorage {\r\n\r\n    uint public s = 1;\r\n    uint public m = 1;\r\n    uint public d = 1;\r\n    uint public r = 1;\r\n    uint public t = 1;\r\n    uint c;\r\n\r\n    mapping (address => uint) balances;\r\n\r\n    function fundaddr(address addr) public{\r\n        balances[addr] = 2000;\r\n    }\r\n\r\n    function sendCoin(address receiver, uint amount, address sender) public returns(bool sufficient){\r\n        \r\n        if (balances[sender] < amount) \r\n            return false;\r\n\r\n        balances[sender] -= amount;\r\n        balances[receiver] += amount;\r\n        \r\n                        \r\n        return true;\r\n    }\r\n\r\n    function getBalance(address addr) view public returns(uint) {\r\n        return balances[addr];\r\n    }\r\n\r\n    struct supplier {\r\n        bytes sid;\r\n        bytes32 sname;\r\n        bytes32 sloc;\r\n        bytes32 material;\r\n        uint scontact;\r\n        uint sexprice;\r\n    }\r\n\r\n    struct manufacturer {\r\n       \r\n        bytes mid;\r\n        bytes32 mname;\r\n        bytes32 mloc;\r\n        bytes32 mproduct;\r\n        uint mcontact;\r\n        uint mexprice;\r\n    }\r\n\r\n    struct distributor {\r\n       \r\n        bytes did;\r\n        bytes32 dname;\r\n        bytes32 dproduct;\r\n        uint dcontact;\r\n        bytes32 origin;\r\n        bytes32 destination;\r\n    }\r\n\r\n    struct retailer {\r\n       \r\n        bytes rid;\r\n        bytes32 rname;\r\n        bytes32 rloc;\r\n        bytes32 rproduct;\r\n        uint rcontact;\r\n        uint rexprice;\r\n    }\r\n\r\n    struct lot {\r\n\r\n        bytes lotno;\r\n        bytes grade;\r\n        uint mrp;\r\n        bytes32 testdate;\r\n        bytes32 expdate;\r\n    }\r\n\r\n    address public tester;\r\n    address owner;\r\n\r\n    mapping (bytes => supplier) s1;\r\n    supplier[] public sp;\r\n\r\n    mapping (bytes => manufacturer) m1;\r\n    manufacturer[] public mf;\r\n\r\n    mapping (bytes => distributor) d1;\r\n    distributor[] public db;\r\n\r\n    mapping (bytes => retailer) r1;\r\n    retailer[] public rt;\r\n\r\n    mapping (bytes => lot) l1;\r\n    lot[] public l;\r\n\r\n\r\n    function mat(bytes memory sid, bytes32 sname, bytes32 sloc, bytes32 material, uint scon, uint spr) public {\r\n                   \r\n        StructStorage.supplier memory snew = supplier(sid, sname, sloc, material, scon, spr);\r\n        s1[sid] = snew;\r\n        sp.push(snew);\r\n        s++;\r\n    }\r\n\r\n    function pro(bytes memory mid, bytes32 mname, bytes32 mloc, bytes32 mpro, uint mcon, uint mpr) public {\r\n        \r\n        StructStorage.manufacturer memory mnew = manufacturer(mid, mname, mloc, mpro, mcon, mpr);\r\n        m1[mid] = mnew;\r\n        mf.push(mnew);\r\n        m++;\r\n    }\r\n\r\n    function ship_info(bytes memory did, bytes32 dname, bytes32 spro, uint dcon, bytes32 org, bytes32 dst) public {\r\n        \r\n        StructStorage.distributor memory dnew = distributor(did, dname, spro, dcon, org, dst);\r\n        d1[did] = dnew;\r\n        db.push(dnew);\r\n        ++d;\r\n    }\r\n\r\n    function goods(bytes memory rid, bytes32 rname, bytes32 rloc, bytes32 rpro, uint rcon, uint rpr) public {\r\n       \r\n        StructStorage.retailer memory rnew = retailer(rid, rname, rloc, rpro, rcon, rpr);\r\n        r1[rid] = rnew;\r\n        rt.push(rnew);\r\n        r++;\r\n    }\r\n\r\n\r\n    function getmat(bytes memory i) public view returns(bytes memory,bytes32,bytes32,bytes32,uint,uint) {\r\n        return (s1[i].sid, s1[i].sname, s1[i].sloc, s1[i].material, s1[i].scontact, s1[i].sexprice);\r\n    }\r\n\r\n    function getpro(bytes memory i) public view returns(bytes memory,bytes32,bytes32,bytes32,uint,uint) {\r\n        return (m1[i].mid, m1[i].mname, m1[i].mloc, m1[i].mproduct, m1[i].mcontact, m1[i].mexprice);\r\n    }\r\n\r\n    function getshipinfo(bytes memory i) public view returns(bytes memory,bytes32,bytes32,uint,bytes32,bytes32) {\r\n        return (d1[i].did, d1[i].dname, d1[i].dproduct, d1[i].dcontact, d1[i].origin, d1[i].destination);\r\n    }\r\n\r\n    function getgoods(bytes memory i) public view returns(bytes memory,bytes32,bytes32,bytes32,uint,uint) {\r\n        return (r1[i].rid, r1[i].rname, r1[i].rloc, r1[i].rproduct, r1[i].rcontact, r1[i].rexprice);\r\n    }\r\n\r\n\r\n    function quality(bytes memory ll, bytes memory g, uint p, bytes32 tt, bytes32 e) public{\r\n        \r\n        StructStorage.lot memory lnew=lot(ll,g,p,tt,e);\r\n        l1[ll]=lnew;\r\n        l.push(lnew);\r\n        t++;\r\n      \r\n    }\r\n\r\n    function getquality(bytes memory k) public view returns(bytes memory,bytes memory,uint,bytes32,bytes32) {\r\n        return(l1[k].lotno,l1[k].grade,l1[k].mrp,l1[k].testdate,l1[k].expdate);\r\n         \r\n    }\r\n}\r\n",
  "sourcePath": "/Users/carl/Study/SupplyChainDapp/contracts/StructStorage.sol",
  "compiler": {
    "name": "solc",
    "version": "0.5.0+commit.1d4f565a.Emscripten.clang"
  },
  "schemaVersion": "3.0.6",
  "updatedAt": "2019-04-09T03:48:52.018Z",
  "devdoc": {
    "methods": {}
  },
  "userdoc": {
    "methods": {}
  }
}