{
  "contractName": "StructStorage",
  "abi": [
    {
      "constant": true,
      "inputs": [
        {
          "name": "",
          "type": "uint256"
        }
      ],
      "name": "db",
      "outputs": [
        {
          "name": "did",
          "type": "bytes"
        },
        {
          "name": "dname",
          "type": "bytes32"
        },
        {
          "name": "dproduct",
          "type": "bytes32"
        },
        {
          "name": "dcontact",
          "type": "uint256"
        },
        {
          "name": "origin",
          "type": "bytes32"
        },
        {
          "name": "destination",
          "type": "bytes32"
        }
      ],
      "payable": false,
      "stateMutability": "view",
      "type": "function",
      "signature": "0x2b551c40"
    },
    {
      "constant": true,
      "inputs": [
        {
          "name": "",
          "type": "uint256"
        }
      ],
      "name": "l",
      "outputs": [
        {
          "name": "lotno",
          "type": "bytes"
        },
        {
          "name": "grade",
          "type": "bytes"
        },
        {
          "name": "mrp",
          "type": "uint256"
        },
        {
          "name": "testdate",
          "type": "bytes32"
        },
        {
          "name": "expdate",
          "type": "bytes32"
        }
      ],
      "payable": false,
      "stateMutability": "view",
      "type": "function",
      "signature": "0x54bb1361"
    },
    {
      "constant": true,
      "inputs": [],
      "name": "m",
      "outputs": [
        {
          "name": "",
          "type": "uint256"
        }
      ],
      "payable": false,
      "stateMutability": "view",
      "type": "function",
      "signature": "0x5a2ee019"
    },
    {
      "constant": true,
      "inputs": [],
      "name": "r",
      "outputs": [
        {
          "name": "",
          "type": "uint256"
        }
      ],
      "payable": false,
      "stateMutability": "view",
      "type": "function",
      "signature": "0x6c8ae38c"
    },
    {
      "constant": true,
      "inputs": [
        {
          "name": "",
          "type": "uint256"
        }
      ],
      "name": "sp",
      "outputs": [
        {
          "name": "sid",
          "type": "bytes"
        },
        {
          "name": "sname",
          "type": "bytes32"
        },
        {
          "name": "sloc",
          "type": "bytes32"
        },
        {
          "name": "material",
          "type": "bytes32"
        },
        {
          "name": "scontact",
          "type": "uint256"
        },
        {
          "name": "sexprice",
          "type": "uint256"
        }
      ],
      "payable": false,
      "stateMutability": "view",
      "type": "function",
      "signature": "0x71c8dbcd"
    },
    {
      "constant": true,
      "inputs": [],
      "name": "tester",
      "outputs": [
        {
          "name": "",
          "type": "address"
        }
      ],
      "payable": false,
      "stateMutability": "view",
      "type": "function",
      "signature": "0x8308abd4"
    },
    {
      "constant": true,
      "inputs": [],
      "name": "s",
      "outputs": [
        {
          "name": "",
          "type": "uint256"
        }
      ],
      "payable": false,
      "stateMutability": "view",
      "type": "function",
      "signature": "0x86b714e2"
    },
    {
      "constant": true,
      "inputs": [],
      "name": "d",
      "outputs": [
        {
          "name": "",
          "type": "uint256"
        }
      ],
      "payable": false,
      "stateMutability": "view",
      "type": "function",
      "signature": "0x8a054ac2"
    },
    {
      "constant": true,
      "inputs": [],
      "name": "t",
      "outputs": [
        {
          "name": "",
          "type": "uint256"
        }
      ],
      "payable": false,
      "stateMutability": "view",
      "type": "function",
      "signature": "0x92d0d153"
    },
    {
      "constant": true,
      "inputs": [
        {
          "name": "",
          "type": "uint256"
        }
      ],
      "name": "rt",
      "outputs": [
        {
          "name": "rid",
          "type": "bytes"
        },
        {
          "name": "rname",
          "type": "bytes32"
        },
        {
          "name": "rloc",
          "type": "bytes32"
        },
        {
          "name": "rproduct",
          "type": "bytes32"
        },
        {
          "name": "rcontact",
          "type": "uint256"
        },
        {
          "name": "rexprice",
          "type": "uint256"
        }
      ],
      "payable": false,
      "stateMutability": "view",
      "type": "function",
      "signature": "0xe3952292"
    },
    {
      "constant": true,
      "inputs": [
        {
          "name": "",
          "type": "uint256"
        }
      ],
      "name": "mf",
      "outputs": [
        {
          "name": "mid",
          "type": "bytes"
        },
        {
          "name": "mname",
          "type": "bytes32"
        },
        {
          "name": "mloc",
          "type": "bytes32"
        },
        {
          "name": "mproduct",
          "type": "bytes32"
        },
        {
          "name": "mcontact",
          "type": "uint256"
        },
        {
          "name": "mexprice",
          "type": "uint256"
        }
      ],
      "payable": false,
      "stateMutability": "view",
      "type": "function",
      "signature": "0xed7417bf"
    },
    {
      "constant": false,
      "inputs": [
        {
          "name": "sid",
          "type": "bytes"
        },
        {
          "name": "sname",
          "type": "bytes32"
        },
        {
          "name": "sloc",
          "type": "bytes32"
        },
        {
          "name": "material",
          "type": "bytes32"
        },
        {
          "name": "scon",
          "type": "uint256"
        },
        {
          "name": "spr",
          "type": "uint256"
        }
      ],
      "name": "mat",
      "outputs": [],
      "payable": false,
      "stateMutability": "nonpayable",
      "type": "function",
      "signature": "0x089e1eeb"
    },
    {
      "constant": false,
      "inputs": [
        {
          "name": "mid",
          "type": "bytes"
        },
        {
          "name": "mname",
          "type": "bytes32"
        },
        {
          "name": "mloc",
          "type": "bytes32"
        },
        {
          "name": "mpro",
          "type": "bytes32"
        },
        {
          "name": "mcon",
          "type": "uint256"
        },
        {
          "name": "mpr",
          "type": "uint256"
        }
      ],
      "name": "pro",
      "outputs": [],
      "payable": false,
      "stateMutability": "nonpayable",
      "type": "function",
      "signature": "0x68c83371"
    },
    {
      "constant": false,
      "inputs": [
        {
          "name": "did",
          "type": "bytes"
        },
        {
          "name": "dname",
          "type": "bytes32"
        },
        {
          "name": "spro",
          "type": "bytes32"
        },
        {
          "name": "dcon",
          "type": "uint256"
        },
        {
          "name": "org",
          "type": "bytes32"
        },
        {
          "name": "dst",
          "type": "bytes32"
        }
      ],
      "name": "ship_info",
      "outputs": [],
      "payable": false,
      "stateMutability": "nonpayable",
      "type": "function",
      "signature": "0xa52a36a1"
    },
    {
      "constant": false,
      "inputs": [
        {
          "name": "rid",
          "type": "bytes"
        },
        {
          "name": "rname",
          "type": "bytes32"
        },
        {
          "name": "rloc",
          "type": "bytes32"
        },
        {
          "name": "rpro",
          "type": "bytes32"
        },
        {
          "name": "rcon",
          "type": "uint256"
        },
        {
          "name": "rpr",
          "type": "uint256"
        }
      ],
      "name": "goods",
      "outputs": [],
      "payable": false,
      "stateMutability": "nonpayable",
      "type": "function",
      "signature": "0x24ee0452"
    },
    {
      "constant": true,
      "inputs": [
        {
          "name": "i",
          "type": "bytes"
        }
      ],
      "name": "getmat",
      "outputs": [
        {
          "name": "",
          "type": "bytes"
        },
        {
          "name": "",
          "type": "bytes32"
        },
        {
          "name": "",
          "type": "bytes32"
        },
        {
          "name": "",
          "type": "bytes32"
        },
        {
          "name": "",
          "type": "uint256"
        },
        {
          "name": "",
          "type": "uint256"
        }
      ],
      "payable": false,
      "stateMutability": "view",
      "type": "function",
      "signature": "0xf7393617"
    },
    {
      "constant": true,
      "inputs": [
        {
          "name": "i",
          "type": "bytes"
        }
      ],
      "name": "getpro",
      "outputs": [
        {
          "name": "",
          "type": "bytes"
        },
        {
          "name": "",
          "type": "bytes32"
        },
        {
          "name": "",
          "type": "bytes32"
        },
        {
          "name": "",
          "type": "bytes32"
        },
        {
          "name": "",
          "type": "uint256"
        },
        {
          "name": "",
          "type": "uint256"
        }
      ],
      "payable": false,
      "stateMutability": "view",
      "type": "function",
      "signature": "0x8d372528"
    },
    {
      "constant": true,
      "inputs": [
        {
          "name": "i",
          "type": "bytes"
        }
      ],
      "name": "getshipinfo",
      "outputs": [
        {
          "name": "",
          "type": "bytes"
        },
        {
          "name": "",
          "type": "bytes32"
        },
        {
          "name": "",
          "type": "bytes32"
        },
        {
          "name": "",
          "type": "uint256"
        },
        {
          "name": "",
          "type": "bytes32"
        },
        {
          "name": "",
          "type": "bytes32"
        }
      ],
      "payable": false,
      "stateMutability": "view",
      "type": "function",
      "signature": "0x28c4469a"
    },
    {
      "constant": true,
      "inputs": [
        {
          "name": "i",
          "type": "bytes"
        }
      ],
      "name": "getgoods",
      "outputs": [
        {
          "name": "",
          "type": "bytes"
        },
        {
          "name": "",
          "type": "bytes32"
        },
        {
          "name": "",
          "type": "bytes32"
        },
        {
          "name": "",
          "type": "bytes32"
        },
        {
          "name": "",
          "type": "uint256"
        },
        {
          "name": "",
          "type": "uint256"
        }
      ],
      "payable": false,
      "stateMutability": "view",
      "type": "function",
      "signature": "0x580e5c61"
    },
    {
      "constant": false,
      "inputs": [
        {
          "name": "ll",
          "type": "bytes"
        },
        {
          "name": "g",
          "type": "bytes"
        },
        {
          "name": "p",
          "type": "uint256"
        },
        {
          "name": "tt",
          "type": "bytes32"
        },
        {
          "name": "e",
          "type": "bytes32"
        }
      ],
      "name": "quality",
      "outputs": [],
      "payable": false,
      "stateMutability": "nonpayable",
      "type": "function",
      "signature": "0x04eb580c"
    }
  ],
  "bytecode": "0x608060405260016000556001805560016002556001600355600160045534801561002857600080fd5b50612e47806100386000396000f3fe608060405260043610610112576000357c0100000000000000000000000000000000000000000000000000000000900463ffffffff16806304eb580c14610117578063089e1eeb1461029457806324ee04521461038e57806328c4469a146104885780632b551c40146105ec57806354bb1361146106c3578063580e5c61146107f85780635a2ee0191461095c57806368c83371146109875780636c8ae38c14610a8157806371c8dbcd14610aac5780638308abd414610b8357806386b714e214610bda5780638a054ac214610c055780638d37252814610c3057806392d0d15314610d94578063a52a36a114610dbf578063e395229214610eb9578063ed7417bf14610f90578063f739361714611067575b600080fd5b34801561012357600080fd5b50610292600480360360a081101561013a57600080fd5b810190808035906020019064010000000081111561015757600080fd5b82018360208201111561016957600080fd5b8035906020019184600183028401116401000000008311171561018b57600080fd5b91908080601f016020809104026020016040519081016040528093929190818152602001838380828437600081840152601f19601f820116905080830192505050505050509192919290803590602001906401000000008111156101ee57600080fd5b82018360208201111561020057600080fd5b8035906020019184600183028401116401000000008311171561022257600080fd5b91908080601f016020809104026020016040519081016040528093929190818152602001838380828437600081840152601f19601f8201169050808301925050505050505091929192908035906020019092919080359060200190929190803590602001909291905050506111cb565b005b3480156102a057600080fd5b5061038c600480360360c08110156102b757600080fd5b81019080803590602001906401000000008111156102d457600080fd5b8201836020820111156102e657600080fd5b8035906020019184600183028401116401000000008311171561030857600080fd5b91908080601f016020809104026020016040519081016040528093929190818152602001838380828437600081840152601f19601f8201169050808301925050505050505091929192908035906020019092919080359060200190929190803590602001909291908035906020019092919080359060200190929190505050611367565b005b34801561039a57600080fd5b50610486600480360360c08110156103b157600080fd5b81019080803590602001906401000000008111156103ce57600080fd5b8201836020820111156103e057600080fd5b8035906020019184600183028401116401000000008311171561040257600080fd5b91908080601f016020809104026020016040519081016040528093929190818152602001838380828437600081840152601f19601f82011690508083019250505050505050919291929080359060200190929190803590602001909291908035906020019092919080359060200190929190803590602001909291905050506114f7565b005b34801561049457600080fd5b5061054e600480360360208110156104ab57600080fd5b81019080803590602001906401000000008111156104c857600080fd5b8201836020820111156104da57600080fd5b803590602001918460018302840111640100000000831117156104fc57600080fd5b91908080601f016020809104026020016040519081016040528093929190818152602001838380828437600081840152601f19601f820116905080830192505050505050509192919290505050611688565b6040518080602001878152602001868152602001858152602001848152602001838152602001828103825288818151815260200191508051906020019080838360005b838110156105ac578082015181840152602081019050610591565b50505050905090810190601f1680156105d95780820380516001836020036101000a031916815260200191505b5097505050505050505060405180910390f35b3480156105f857600080fd5b506106256004803603602081101561060f57600080fd5b81019080803590602001909291905050506119dc565b6040518080602001878152602001868152602001858152602001848152602001838152602001828103825288818151815260200191508051906020019080838360005b83811015610683578082015181840152602081019050610668565b50505050905090810190601f1680156106b05780820380516001836020036101000a031916815260200191505b5097505050505050505060405180910390f35b3480156106cf57600080fd5b506106fc600480360360208110156106e657600080fd5b8101908080359060200190929190505050611abf565b604051808060200180602001868152602001858152602001848152602001838103835288818151815260200191508051906020019080838360005b83811015610752578082015181840152602081019050610737565b50505050905090810190601f16801561077f5780820380516001836020036101000a031916815260200191505b50838103825287818151815260200191508051906020019080838360005b838110156107b857808201518184015260208101905061079d565b50505050905090810190601f1680156107e55780820380516001836020036101000a031916815260200191505b5097505050505050505060405180910390f35b34801561080457600080fd5b506108be6004803603602081101561081b57600080fd5b810190808035906020019064010000000081111561083857600080fd5b82018360208201111561084a57600080fd5b8035906020019184600183028401116401000000008311171561086c57600080fd5b91908080601f016020809104026020016040519081016040528093929190818152602001838380828437600081840152601f19601f820116905080830192505050505050509192919290505050611c34565b6040518080602001878152602001868152602001858152602001848152602001838152602001828103825288818151815260200191508051906020019080838360005b8381101561091c578082015181840152602081019050610901565b50505050905090810190601f1680156109495780820380516001836020036101000a031916815260200191505b5097505050505050505060405180910390f35b34801561096857600080fd5b50610971611f88565b6040518082815260200191505060405180910390f35b34801561099357600080fd5b50610a7f600480360360c08110156109aa57600080fd5b81019080803590602001906401000000008111156109c757600080fd5b8201836020820111156109d957600080fd5b803590602001918460018302840111640100000000831117156109fb57600080fd5b91908080601f016020809104026020016040519081016040528093929190818152602001838380828437600081840152601f19601f8201169050808301925050505050505091929192908035906020019092919080359060200190929190803590602001909291908035906020019092919080359060200190929190505050611f8e565b005b348015610a8d57600080fd5b50610a9661211f565b6040518082815260200191505060405180910390f35b348015610ab857600080fd5b50610ae560048036036020811015610acf57600080fd5b8101908080359060200190929190505050612125565b6040518080602001878152602001868152602001858152602001848152602001838152602001828103825288818151815260200191508051906020019080838360005b83811015610b43578082015181840152602081019050610b28565b50505050905090810190601f168015610b705780820380516001836020036101000a031916815260200191505b5097505050505050505060405180910390f35b348015610b8f57600080fd5b50610b98612208565b604051808273ffffffffffffffffffffffffffffffffffffffff1673ffffffffffffffffffffffffffffffffffffffff16815260200191505060405180910390f35b348015610be657600080fd5b50610bef61222e565b6040518082815260200191505060405180910390f35b348015610c1157600080fd5b50610c1a612234565b6040518082815260200191505060405180910390f35b348015610c3c57600080fd5b50610cf660048036036020811015610c5357600080fd5b8101908080359060200190640100000000811115610c7057600080fd5b820183602082011115610c8257600080fd5b80359060200191846001830284011164010000000083111715610ca457600080fd5b91908080601f016020809104026020016040519081016040528093929190818152602001838380828437600081840152601f19601f82011690508083019250505050505050919291929050505061223a565b6040518080602001878152602001868152602001858152602001848152602001838152602001828103825288818151815260200191508051906020019080838360005b83811015610d54578082015181840152602081019050610d39565b50505050905090810190601f168015610d815780820380516001836020036101000a031916815260200191505b5097505050505050505060405180910390f35b348015610da057600080fd5b50610da961258e565b6040518082815260200191505060405180910390f35b348015610dcb57600080fd5b50610eb7600480360360c0811015610de257600080fd5b8101908080359060200190640100000000811115610dff57600080fd5b820183602082011115610e1157600080fd5b80359060200191846001830284011164010000000083111715610e3357600080fd5b91908080601f016020809104026020016040519081016040528093929190818152602001838380828437600081840152601f19601f8201169050808301925050505050505091929192908035906020019092919080359060200190929190803590602001909291908035906020019092919080359060200190929190505050612594565b005b348015610ec557600080fd5b50610ef260048036036020811015610edc57600080fd5b8101908080359060200190929190505050612723565b6040518080602001878152602001868152602001858152602001848152602001838152602001828103825288818151815260200191508051906020019080838360005b83811015610f50578082015181840152602081019050610f35565b50505050905090810190601f168015610f7d5780820380516001836020036101000a031916815260200191505b5097505050505050505060405180910390f35b348015610f9c57600080fd5b50610fc960048036036020811015610fb357600080fd5b8101908080359060200190929190505050612806565b6040518080602001878152602001868152602001858152602001848152602001838152602001828103825288818151815260200191508051906020019080838360005b8381101561102757808201518184015260208101905061100c565b50505050905090810190601f1680156110545780820380516001836020036101000a031916815260200191505b5097505050505050505060405180910390f35b34801561107357600080fd5b5061112d6004803603602081101561108a57600080fd5b81019080803590602001906401000000008111156110a757600080fd5b8201836020820111156110b957600080fd5b803590602001918460018302840111640100000000831117156110db57600080fd5b91908080601f016020809104026020016040519081016040528093929190818152602001838380828437600081840152601f19601f8201169050808301925050505050505091929192905050506128e9565b6040518080602001878152602001868152602001858152602001848152602001838152602001828103825288818151815260200191508051906020019080838360005b8381101561118b578082015181840152602081019050611170565b50505050905090810190601f1680156111b85780820380516001836020036101000a031916815260200191505b5097505050505050505060405180910390f35b6111d3612c3d565b60a060405190810160405280878152602001868152602001858152602001848152602001838152509050806010876040518082805190602001908083835b6020831015156112365780518252602082019150602081019050602083039250611211565b6001836020036101000a03801982511681845116808217855250505050505090500191505090815260200160405180910390206000820151816000019080519060200190611285929190612c73565b5060208201518160010190805190602001906112a2929190612c73565b5060408201518160020155606082015181600301556080820151816004015590505060118190806001815401808255809150509060018203906000526020600020906005020160009091929091909150600082015181600001908051906020019061130e929190612c73565b50602082015181600101908051906020019061132b929190612c73565b50604082015181600201556060820151816003015560808201518160040155505050600460008154809291906001019190505550505050505050565b61136f612cf3565b60c060405190810160405280888152602001878152602001868152602001858152602001848152602001838152509050806008886040518082805190602001908083835b6020831015156113d857805182526020820191506020810190506020830392506113b3565b6001836020036101000a03801982511681845116808217855250505050505090500191505090815260200160405180910390206000820151816000019080519060200190611427929190612c73565b506020820151816001015560408201518160020155606082015181600301556080820151816004015560a082015181600501559050506009819080600181540180825580915050906001820390600052602060002090600602016000909192909190915060008201518160000190805190602001906114a7929190612c73565b506020820151816001015560408201518160020155606082015181600301556080820151816004015560a08201518160050155505050600080815480929190600101919050555050505050505050565b6114ff612d33565b60c06040519081016040528088815260200187815260200186815260200185815260200184815260200183815250905080600e886040518082805190602001908083835b6020831015156115685780518252602082019150602081019050602083039250611543565b6001836020036101000a038019825116818451168082178552505050505050905001915050908152602001604051809103902060008201518160000190805190602001906115b7929190612c73565b506020820151816001015560408201518160020155606082015181600301556080820151816004015560a08201518160050155905050600f81908060018154018082558091505090600182039060005260206000209060060201600090919290919091506000820151816000019080519060200190611637929190612c73565b506020820151816001015560408201518160020155606082015181600301556080820151816004015560a0820151816005015550505060036000815480929190600101919050555050505050505050565b60606000806000806000600c876040518082805190602001908083835b6020831015156116ca57805182526020820191506020810190506020830392506116a5565b6001836020036101000a0380198251168184511680821785525050505050509050019150509081526020016040518091039020600001600c886040518082805190602001908083835b6020831015156117385780518252602082019150602081019050602083039250611713565b6001836020036101000a038019825116818451168082178552505050505050905001915050908152602001604051809103902060010154600c896040518082805190602001908083835b6020831015156117a75780518252602082019150602081019050602083039250611782565b6001836020036101000a038019825116818451168082178552505050505050905001915050908152602001604051809103902060020154600c8a6040518082805190602001908083835b60208310151561181657805182526020820191506020810190506020830392506117f1565b6001836020036101000a038019825116818451168082178552505050505050905001915050908152602001604051809103902060030154600c8b6040518082805190602001908083835b6020831015156118855780518252602082019150602081019050602083039250611860565b6001836020036101000a038019825116818451168082178552505050505050905001915050908152602001604051809103902060040154600c8c6040518082805190602001908083835b6020831015156118f457805182526020820191506020810190506020830392506118cf565b6001836020036101000a038019825116818451168082178552505050505050905001915050908152602001604051809103902060050154858054600181600116156101000203166002900480601f0160208091040260200160405190810160405280929190818152602001828054600181600116156101000203166002900480156119c05780601f10611995576101008083540402835291602001916119c0565b820191906000526020600020905b8154815290600101906020018083116119a357829003601f168201915b5050505050955095509550955095509550955091939550919395565b600d818154811015156119eb57fe5b9060005260206000209060060201600091509050806000018054600181600116156101000203166002900480601f016020809104026020016040519081016040528092919081815260200182805460018160011615610100020316600290048015611a975780601f10611a6c57610100808354040283529160200191611a97565b820191906000526020600020905b815481529060010190602001808311611a7a57829003601f168201915b5050505050908060010154908060020154908060030154908060040154908060050154905086565b601181815481101515611ace57fe5b9060005260206000209060050201600091509050806000018054600181600116156101000203166002900480601f016020809104026020016040519081016040528092919081815260200182805460018160011615610100020316600290048015611b7a5780601f10611b4f57610100808354040283529160200191611b7a565b820191906000526020600020905b815481529060010190602001808311611b5d57829003601f168201915b505050505090806001018054600181600116156101000203166002900480601f016020809104026020016040519081016040528092919081815260200182805460018160011615610100020316600290048015611c185780601f10611bed57610100808354040283529160200191611c18565b820191906000526020600020905b815481529060010190602001808311611bfb57829003601f168201915b5050505050908060020154908060030154908060040154905085565b60606000806000806000600e876040518082805190602001908083835b602083101515611c765780518252602082019150602081019050602083039250611c51565b6001836020036101000a0380198251168184511680821785525050505050509050019150509081526020016040518091039020600001600e886040518082805190602001908083835b602083101515611ce45780518252602082019150602081019050602083039250611cbf565b6001836020036101000a038019825116818451168082178552505050505050905001915050908152602001604051809103902060010154600e896040518082805190602001908083835b602083101515611d535780518252602082019150602081019050602083039250611d2e565b6001836020036101000a038019825116818451168082178552505050505050905001915050908152602001604051809103902060020154600e8a6040518082805190602001908083835b602083101515611dc25780518252602082019150602081019050602083039250611d9d565b6001836020036101000a038019825116818451168082178552505050505050905001915050908152602001604051809103902060030154600e8b6040518082805190602001908083835b602083101515611e315780518252602082019150602081019050602083039250611e0c565b6001836020036101000a038019825116818451168082178552505050505050905001915050908152602001604051809103902060040154600e8c6040518082805190602001908083835b602083101515611ea05780518252602082019150602081019050602083039250611e7b565b6001836020036101000a038019825116818451168082178552505050505050905001915050908152602001604051809103902060050154858054600181600116156101000203166002900480601f016020809104026020016040519081016040528092919081815260200182805460018160011615610100020316600290048015611f6c5780601f10611f4157610100808354040283529160200191611f6c565b820191906000526020600020905b815481529060010190602001808311611f4f57829003601f168201915b5050505050955095509550955095509550955091939550919395565b60015481565b611f96612d73565b60c06040519081016040528088815260200187815260200186815260200185815260200184815260200183815250905080600a886040518082805190602001908083835b602083101515611fff5780518252602082019150602081019050602083039250611fda565b6001836020036101000a0380198251168184511680821785525050505050509050019150509081526020016040518091039020600082015181600001908051906020019061204e929190612c73565b506020820151816001015560408201518160020155606082015181600301556080820151816004015560a08201518160050155905050600b819080600181540180825580915050906001820390600052602060002090600602016000909192909190915060008201518160000190805190602001906120ce929190612c73565b506020820151816001015560408201518160020155606082015181600301556080820151816004015560a0820151816005015550505060016000815480929190600101919050555050505050505050565b60035481565b60098181548110151561213457fe5b9060005260206000209060060201600091509050806000018054600181600116156101000203166002900480601f0160208091040260200160405190810160405280929190818152602001828054600181600116156101000203166002900480156121e05780601f106121b5576101008083540402835291602001916121e0565b820191906000526020600020905b8154815290600101906020018083116121c357829003601f168201915b5050505050908060010154908060020154908060030154908060040154908060050154905086565b600660009054906101000a900473ffffffffffffffffffffffffffffffffffffffff1681565b60005481565b60025481565b60606000806000806000600a876040518082805190602001908083835b60208310151561227c5780518252602082019150602081019050602083039250612257565b6001836020036101000a0380198251168184511680821785525050505050509050019150509081526020016040518091039020600001600a886040518082805190602001908083835b6020831015156122ea57805182526020820191506020810190506020830392506122c5565b6001836020036101000a038019825116818451168082178552505050505050905001915050908152602001604051809103902060010154600a896040518082805190602001908083835b6020831015156123595780518252602082019150602081019050602083039250612334565b6001836020036101000a038019825116818451168082178552505050505050905001915050908152602001604051809103902060020154600a8a6040518082805190602001908083835b6020831015156123c857805182526020820191506020810190506020830392506123a3565b6001836020036101000a038019825116818451168082178552505050505050905001915050908152602001604051809103902060030154600a8b6040518082805190602001908083835b6020831015156124375780518252602082019150602081019050602083039250612412565b6001836020036101000a038019825116818451168082178552505050505050905001915050908152602001604051809103902060040154600a8c6040518082805190602001908083835b6020831015156124a65780518252602082019150602081019050602083039250612481565b6001836020036101000a038019825116818451168082178552505050505050905001915050908152602001604051809103902060050154858054600181600116156101000203166002900480601f0160208091040260200160405190810160405280929190818152602001828054600181600116156101000203166002900480156125725780601f1061254757610100808354040283529160200191612572565b820191906000526020600020905b81548152906001019060200180831161255557829003601f168201915b5050505050955095509550955095509550955091939550919395565b60045481565b61259c612db3565b60c06040519081016040528088815260200187815260200186815260200185815260200184815260200183815250905080600c886040518082805190602001908083835b60208310151561260557805182526020820191506020810190506020830392506125e0565b6001836020036101000a03801982511681845116808217855250505050505090500191505090815260200160405180910390206000820151816000019080519060200190612654929190612c73565b506020820151816001015560408201518160020155606082015181600301556080820151816004015560a08201518160050155905050600d819080600181540180825580915050906001820390600052602060002090600602016000909192909190915060008201518160000190805190602001906126d4929190612c73565b506020820151816001015560408201518160020155606082015181600301556080820151816004015560a082015181600501555050506002600081546001019190508190555050505050505050565b600f8181548110151561273257fe5b9060005260206000209060060201600091509050806000018054600181600116156101000203166002900480601f0160208091040260200160405190810160405280929190818152602001828054600181600116156101000203166002900480156127de5780601f106127b3576101008083540402835291602001916127de565b820191906000526020600020905b8154815290600101906020018083116127c157829003601f168201915b5050505050908060010154908060020154908060030154908060040154908060050154905086565b600b8181548110151561281557fe5b9060005260206000209060060201600091509050806000018054600181600116156101000203166002900480601f0160208091040260200160405190810160405280929190818152602001828054600181600116156101000203166002900480156128c15780601f10612896576101008083540402835291602001916128c1565b820191906000526020600020905b8154815290600101906020018083116128a457829003601f168201915b5050505050908060010154908060020154908060030154908060040154908060050154905086565b606060008060008060006008876040518082805190602001908083835b60208310151561292b5780518252602082019150602081019050602083039250612906565b6001836020036101000a03801982511681845116808217855250505050505090500191505090815260200160405180910390206000016008886040518082805190602001908083835b6020831015156129995780518252602082019150602081019050602083039250612974565b6001836020036101000a0380198251168184511680821785525050505050509050019150509081526020016040518091039020600101546008896040518082805190602001908083835b602083101515612a0857805182526020820191506020810190506020830392506129e3565b6001836020036101000a03801982511681845116808217855250505050505090500191505090815260200160405180910390206002015460088a6040518082805190602001908083835b602083101515612a775780518252602082019150602081019050602083039250612a52565b6001836020036101000a03801982511681845116808217855250505050505090500191505090815260200160405180910390206003015460088b6040518082805190602001908083835b602083101515612ae65780518252602082019150602081019050602083039250612ac1565b6001836020036101000a03801982511681845116808217855250505050505090500191505090815260200160405180910390206004015460088c6040518082805190602001908083835b602083101515612b555780518252602082019150602081019050602083039250612b30565b6001836020036101000a038019825116818451168082178552505050505050905001915050908152602001604051809103902060050154858054600181600116156101000203166002900480601f016020809104026020016040519081016040528092919081815260200182805460018160011615610100020316600290048015612c215780601f10612bf657610100808354040283529160200191612c21565b820191906000526020600020905b815481529060010190602001808311612c0457829003601f168201915b5050505050955095509550955095509550955091939550919395565b60a06040519081016040528060608152602001606081526020016000815260200160008019168152602001600080191681525090565b828054600181600116156101000203166002900490600052602060002090601f016020900481019282601f10612cb457805160ff1916838001178555612ce2565b82800160010185558215612ce2579182015b82811115612ce1578251825591602001919060010190612cc6565b5b509050612cef9190612df6565b5090565b60c0604051908101604052806060815260200160008019168152602001600080191681526020016000801916815260200160008152602001600081525090565b60c0604051908101604052806060815260200160008019168152602001600080191681526020016000801916815260200160008152602001600081525090565b60c0604051908101604052806060815260200160008019168152602001600080191681526020016000801916815260200160008152602001600081525090565b60c0604051908101604052806060815260200160008019168152602001600080191681526020016000815260200160008019168152602001600080191681525090565b612e1891905b80821115612e14576000816000905550600101612dfc565b5090565b9056fea165627a7a7230582063dc278995c9201497f915abcc417ccacbbcd3a72a30d899829f7a5aab3312e00029",
  "source": "pragma solidity ^0.5.0;\r\n\r\ncontract StructStorage {\r\n\r\n    uint public s = 1;\r\n    uint public m = 1;\r\n    uint public d = 1;\r\n    uint public r = 1;\r\n    uint public t = 1;\r\n    uint c;\r\n\r\n    // mapping (address => uint) balances;\r\n\r\n    // function fundaddr(address addr) public{\r\n    //     balances[addr] = 2000;\r\n    // }\r\n\r\n    // function sendCoin(address receiver, uint amount, address sender) public returns(bool sufficient){\r\n        \r\n    //     if (balances[sender] < amount) \r\n    //         return false;\r\n\r\n    //     balances[sender] -= amount;\r\n    //     balances[receiver] += amount;\r\n        \r\n                        \r\n    //     return true;\r\n    // }\r\n\r\n    // function getBalance(address addr) view public returns(uint) {\r\n    //     return balances[addr];\r\n    // }\r\n\r\n    struct supplier {\r\n        bytes sid;\r\n        bytes32 sname;\r\n        bytes32 sloc;\r\n        bytes32 material;\r\n        uint scontact;\r\n        uint sexprice;\r\n    }\r\n\r\n    struct manufacturer {\r\n       \r\n        bytes mid;\r\n        bytes32 mname;\r\n        bytes32 mloc;\r\n        bytes32 mproduct;\r\n        uint mcontact;\r\n        uint mexprice;\r\n    }\r\n\r\n    struct distributor {\r\n       \r\n        bytes did;\r\n        bytes32 dname;\r\n        bytes32 dproduct;\r\n        uint dcontact;\r\n        bytes32 origin;\r\n        bytes32 destination;\r\n    }\r\n\r\n    struct retailer {\r\n       \r\n        bytes rid;\r\n        bytes32 rname;\r\n        bytes32 rloc;\r\n        bytes32 rproduct;\r\n        uint rcontact;\r\n        uint rexprice;\r\n    }\r\n\r\n    struct lot {\r\n\r\n        bytes lotno;\r\n        bytes grade;\r\n        uint mrp;\r\n        bytes32 testdate;\r\n        bytes32 expdate;\r\n    }\r\n\r\n    address public tester;\r\n    address owner;\r\n\r\n    mapping (bytes => supplier) s1;\r\n    supplier[] public sp;\r\n\r\n    mapping (bytes => manufacturer) m1;\r\n    manufacturer[] public mf;\r\n\r\n    mapping (bytes => distributor) d1;\r\n    distributor[] public db;\r\n\r\n    mapping (bytes => retailer) r1;\r\n    retailer[] public rt;\r\n\r\n    mapping (bytes => lot) l1;\r\n    lot[] public l;\r\n\r\n\r\n    function mat(bytes memory sid, bytes32 sname, bytes32 sloc, bytes32 material, uint scon, uint spr) public {\r\n                   \r\n        StructStorage.supplier memory snew = supplier(sid, sname, sloc, material, scon, spr);\r\n        s1[sid] = snew;\r\n        sp.push(snew);\r\n        s++;\r\n    }\r\n\r\n    function pro(bytes memory mid, bytes32 mname, bytes32 mloc, bytes32 mpro, uint mcon, uint mpr) public {\r\n        \r\n        StructStorage.manufacturer memory mnew = manufacturer(mid, mname, mloc, mpro, mcon, mpr);\r\n        m1[mid] = mnew;\r\n        mf.push(mnew);\r\n        m++;\r\n    }\r\n\r\n    function ship_info(bytes memory did, bytes32 dname, bytes32 spro, uint dcon, bytes32 org, bytes32 dst) public {\r\n        \r\n        StructStorage.distributor memory dnew = distributor(did, dname, spro, dcon, org, dst);\r\n        d1[did] = dnew;\r\n        db.push(dnew);\r\n        ++d;\r\n    }\r\n\r\n    function goods(bytes memory rid, bytes32 rname, bytes32 rloc, bytes32 rpro, uint rcon, uint rpr) public {\r\n       \r\n        StructStorage.retailer memory rnew = retailer(rid, rname, rloc, rpro, rcon, rpr);\r\n        r1[rid] = rnew;\r\n        rt.push(rnew);\r\n        r++;\r\n    }\r\n\r\n\r\n    function getmat(bytes memory i) public view returns(bytes memory,bytes32,bytes32,bytes32,uint,uint) {\r\n        return (s1[i].sid, s1[i].sname, s1[i].sloc, s1[i].material, s1[i].scontact, s1[i].sexprice);\r\n    }\r\n\r\n    function getpro(bytes memory i) public view returns(bytes memory,bytes32,bytes32,bytes32,uint,uint) {\r\n        return (m1[i].mid, m1[i].mname, m1[i].mloc, m1[i].mproduct, m1[i].mcontact, m1[i].mexprice);\r\n    }\r\n\r\n    function getshipinfo(bytes memory i) public view returns(bytes memory,bytes32,bytes32,uint,bytes32,bytes32) {\r\n        return (d1[i].did, d1[i].dname, d1[i].dproduct, d1[i].dcontact, d1[i].origin, d1[i].destination);\r\n    }\r\n\r\n    function getgoods(bytes memory i) public view returns(bytes memory,bytes32,bytes32,bytes32,uint,uint) {\r\n        return (r1[i].rid, r1[i].rname, r1[i].rloc, r1[i].rproduct, r1[i].rcontact, r1[i].rexprice);\r\n    }\r\n\r\n\r\n    function quality(bytes memory ll, bytes memory g, uint p, bytes32 tt, bytes32 e) public{\r\n        \r\n        StructStorage.lot memory lnew=lot(ll,g,p,tt,e);\r\n        l1[ll]=lnew;\r\n        l.push(lnew);\r\n        t++;\r\n      \r\n    }\r\n\r\n    // function getquality(bytes memory k) public view returns(bytes memory,bytes memory,uint,bytes32,bytes32) {\r\n    //     return(l1[k].lotno, l1[k].grade, l1[k].mrp, l1[k].testdate, l1[k].expdate);\r\n         \r\n    // }\r\n}\r\n",
  "sourcePath": "/Users/carl/Study/SupplyChainDapp/contracts/StructStorage.sol",
  "compiler": {
    "name": "solc",
    "version": "0.5.0+commit.1d4f565a.Emscripten.clang"
  },
  "schemaVersion": "3.0.6",
  "updatedAt": "2019-04-12T04:24:55.577Z",
  "devdoc": {
    "methods": {}
  },
  "userdoc": {
    "methods": {}
  }
}