{
  "contractName": "SupplyChain",
  "abi": [
    {
      "constant": true,
      "inputs": [
        {
          "name": "",
          "type": "uint256"
        }
      ],
      "name": "db",
      "outputs": [
        {
          "name": "did",
          "type": "bytes"
        },
        {
          "name": "dname",
          "type": "bytes32"
        },
        {
          "name": "dproduct",
          "type": "bytes32"
        },
        {
          "name": "dcontact",
          "type": "uint256"
        },
        {
          "name": "origin",
          "type": "bytes32"
        },
        {
          "name": "destination",
          "type": "bytes32"
        }
      ],
      "payable": false,
      "stateMutability": "view",
      "type": "function",
      "signature": "0x2b551c40"
    },
    {
      "constant": true,
      "inputs": [
        {
          "name": "",
          "type": "uint256"
        }
      ],
      "name": "l",
      "outputs": [
        {
          "name": "lotno",
          "type": "bytes"
        },
        {
          "name": "grade",
          "type": "bytes"
        },
        {
          "name": "mrp",
          "type": "uint256"
        },
        {
          "name": "testdate",
          "type": "bytes32"
        },
        {
          "name": "expdate",
          "type": "bytes32"
        }
      ],
      "payable": false,
      "stateMutability": "view",
      "type": "function",
      "signature": "0x54bb1361"
    },
    {
      "constant": true,
      "inputs": [],
      "name": "m",
      "outputs": [
        {
          "name": "",
          "type": "uint256"
        }
      ],
      "payable": false,
      "stateMutability": "view",
      "type": "function",
      "signature": "0x5a2ee019"
    },
    {
      "constant": true,
      "inputs": [],
      "name": "r",
      "outputs": [
        {
          "name": "",
          "type": "uint256"
        }
      ],
      "payable": false,
      "stateMutability": "view",
      "type": "function",
      "signature": "0x6c8ae38c"
    },
    {
      "constant": true,
      "inputs": [
        {
          "name": "",
          "type": "uint256"
        }
      ],
      "name": "sp",
      "outputs": [
        {
          "name": "sid",
          "type": "bytes"
        },
        {
          "name": "sname",
          "type": "bytes32"
        },
        {
          "name": "sloc",
          "type": "bytes32"
        },
        {
          "name": "material",
          "type": "bytes32"
        },
        {
          "name": "scontact",
          "type": "uint256"
        },
        {
          "name": "sexprice",
          "type": "uint256"
        }
      ],
      "payable": false,
      "stateMutability": "view",
      "type": "function",
      "signature": "0x71c8dbcd"
    },
    {
      "constant": true,
      "inputs": [],
      "name": "tester",
      "outputs": [
        {
          "name": "",
          "type": "address"
        }
      ],
      "payable": false,
      "stateMutability": "view",
      "type": "function",
      "signature": "0x8308abd4"
    },
    {
      "constant": true,
      "inputs": [],
      "name": "s",
      "outputs": [
        {
          "name": "",
          "type": "uint256"
        }
      ],
      "payable": false,
      "stateMutability": "view",
      "type": "function",
      "signature": "0x86b714e2"
    },
    {
      "constant": true,
      "inputs": [],
      "name": "d",
      "outputs": [
        {
          "name": "",
          "type": "uint256"
        }
      ],
      "payable": false,
      "stateMutability": "view",
      "type": "function",
      "signature": "0x8a054ac2"
    },
    {
      "constant": true,
      "inputs": [],
      "name": "t",
      "outputs": [
        {
          "name": "",
          "type": "uint256"
        }
      ],
      "payable": false,
      "stateMutability": "view",
      "type": "function",
      "signature": "0x92d0d153"
    },
    {
      "constant": true,
      "inputs": [
        {
          "name": "",
          "type": "uint256"
        }
      ],
      "name": "rt",
      "outputs": [
        {
          "name": "rid",
          "type": "bytes"
        },
        {
          "name": "rname",
          "type": "bytes32"
        },
        {
          "name": "rloc",
          "type": "bytes32"
        },
        {
          "name": "rproduct",
          "type": "bytes32"
        },
        {
          "name": "rcontact",
          "type": "uint256"
        },
        {
          "name": "rexprice",
          "type": "uint256"
        }
      ],
      "payable": false,
      "stateMutability": "view",
      "type": "function",
      "signature": "0xe3952292"
    },
    {
      "constant": true,
      "inputs": [
        {
          "name": "",
          "type": "uint256"
        }
      ],
      "name": "mf",
      "outputs": [
        {
          "name": "mid",
          "type": "bytes"
        },
        {
          "name": "mname",
          "type": "bytes32"
        },
        {
          "name": "mloc",
          "type": "bytes32"
        },
        {
          "name": "mproduct",
          "type": "bytes32"
        },
        {
          "name": "mcontact",
          "type": "uint256"
        },
        {
          "name": "mexprice",
          "type": "uint256"
        }
      ],
      "payable": false,
      "stateMutability": "view",
      "type": "function",
      "signature": "0xed7417bf"
    },
    {
      "constant": false,
      "inputs": [
        {
          "name": "sid",
          "type": "bytes"
        },
        {
          "name": "sname",
          "type": "bytes32"
        },
        {
          "name": "sloc",
          "type": "bytes32"
        },
        {
          "name": "material",
          "type": "bytes32"
        },
        {
          "name": "scon",
          "type": "uint256"
        },
        {
          "name": "spr",
          "type": "uint256"
        }
      ],
      "name": "mat",
      "outputs": [],
      "payable": false,
      "stateMutability": "nonpayable",
      "type": "function",
      "signature": "0x089e1eeb"
    },
    {
      "constant": false,
      "inputs": [
        {
          "name": "mid",
          "type": "bytes"
        },
        {
          "name": "mname",
          "type": "bytes32"
        },
        {
          "name": "mloc",
          "type": "bytes32"
        },
        {
          "name": "mpro",
          "type": "bytes32"
        },
        {
          "name": "mcon",
          "type": "uint256"
        },
        {
          "name": "mpr",
          "type": "uint256"
        }
      ],
      "name": "pro",
      "outputs": [],
      "payable": false,
      "stateMutability": "nonpayable",
      "type": "function",
      "signature": "0x68c83371"
    },
    {
      "constant": false,
      "inputs": [
        {
          "name": "did",
          "type": "bytes"
        },
        {
          "name": "dname",
          "type": "bytes32"
        },
        {
          "name": "dpro",
          "type": "bytes32"
        },
        {
          "name": "dcon",
          "type": "uint256"
        },
        {
          "name": "org",
          "type": "bytes32"
        },
        {
          "name": "dst",
          "type": "bytes32"
        }
      ],
      "name": "ship_info",
      "outputs": [],
      "payable": false,
      "stateMutability": "nonpayable",
      "type": "function",
      "signature": "0xa52a36a1"
    },
    {
      "constant": false,
      "inputs": [
        {
          "name": "rid",
          "type": "bytes"
        },
        {
          "name": "rname",
          "type": "bytes32"
        },
        {
          "name": "rloc",
          "type": "bytes32"
        },
        {
          "name": "rpro",
          "type": "bytes32"
        },
        {
          "name": "rcon",
          "type": "uint256"
        },
        {
          "name": "rpr",
          "type": "uint256"
        }
      ],
      "name": "goods",
      "outputs": [],
      "payable": false,
      "stateMutability": "nonpayable",
      "type": "function",
      "signature": "0x24ee0452"
    },
    {
      "constant": true,
      "inputs": [
        {
          "name": "i",
          "type": "bytes"
        }
      ],
      "name": "getmat",
      "outputs": [
        {
          "name": "",
          "type": "bytes"
        },
        {
          "name": "",
          "type": "bytes32"
        },
        {
          "name": "",
          "type": "bytes32"
        },
        {
          "name": "",
          "type": "bytes32"
        },
        {
          "name": "",
          "type": "uint256"
        },
        {
          "name": "",
          "type": "uint256"
        }
      ],
      "payable": false,
      "stateMutability": "view",
      "type": "function",
      "signature": "0xf7393617"
    },
    {
      "constant": true,
      "inputs": [
        {
          "name": "i",
          "type": "bytes"
        }
      ],
      "name": "getpro",
      "outputs": [
        {
          "name": "",
          "type": "bytes"
        },
        {
          "name": "",
          "type": "bytes32"
        },
        {
          "name": "",
          "type": "bytes32"
        },
        {
          "name": "",
          "type": "bytes32"
        },
        {
          "name": "",
          "type": "uint256"
        },
        {
          "name": "",
          "type": "uint256"
        }
      ],
      "payable": false,
      "stateMutability": "view",
      "type": "function",
      "signature": "0x8d372528"
    },
    {
      "constant": true,
      "inputs": [
        {
          "name": "i",
          "type": "bytes"
        }
      ],
      "name": "getshipinfo",
      "outputs": [
        {
          "name": "",
          "type": "bytes"
        },
        {
          "name": "",
          "type": "bytes32"
        },
        {
          "name": "",
          "type": "bytes32"
        },
        {
          "name": "",
          "type": "uint256"
        },
        {
          "name": "",
          "type": "bytes32"
        },
        {
          "name": "",
          "type": "bytes32"
        }
      ],
      "payable": false,
      "stateMutability": "view",
      "type": "function",
      "signature": "0x28c4469a"
    },
    {
      "constant": true,
      "inputs": [
        {
          "name": "i",
          "type": "bytes"
        }
      ],
      "name": "getgoods",
      "outputs": [
        {
          "name": "",
          "type": "bytes"
        },
        {
          "name": "",
          "type": "bytes32"
        },
        {
          "name": "",
          "type": "bytes32"
        },
        {
          "name": "",
          "type": "bytes32"
        },
        {
          "name": "",
          "type": "uint256"
        },
        {
          "name": "",
          "type": "uint256"
        }
      ],
      "payable": false,
      "stateMutability": "view",
      "type": "function",
      "signature": "0x580e5c61"
    },
    {
      "constant": false,
      "inputs": [
        {
          "name": "ll",
          "type": "bytes"
        },
        {
          "name": "g",
          "type": "bytes"
        },
        {
          "name": "p",
          "type": "uint256"
        },
        {
          "name": "tt",
          "type": "bytes32"
        },
        {
          "name": "e",
          "type": "bytes32"
        }
      ],
      "name": "quality",
      "outputs": [],
      "payable": false,
      "stateMutability": "nonpayable",
      "type": "function",
      "signature": "0x04eb580c"
    },
    {
      "constant": true,
      "inputs": [
        {
          "name": "k",
          "type": "bytes"
        }
      ],
      "name": "getcert",
      "outputs": [
        {
          "name": "",
          "type": "bytes"
        },
        {
          "name": "",
          "type": "bytes"
        },
        {
          "name": "",
          "type": "uint256"
        },
        {
          "name": "",
          "type": "bytes32"
        },
        {
          "name": "",
          "type": "bytes32"
        }
      ],
      "payable": false,
      "stateMutability": "view",
      "type": "function",
      "signature": "0x175cd710"
    }
  ],
  "bytecode": "0x608060405260016000556001805560016002556001600355600160045534801561002857600080fd5b50613390806100386000396000f3fe60806040526004361061011d576000357c0100000000000000000000000000000000000000000000000000000000900463ffffffff16806304eb580c14610122578063089e1eeb1461029f578063175cd7101461039957806324ee04521461055b57806328c4469a146106555780632b551c40146107b957806354bb136114610890578063580e5c61146109c55780635a2ee01914610b2957806368c8337114610b545780636c8ae38c14610c4e57806371c8dbcd14610c795780638308abd414610d5057806386b714e214610da75780638a054ac214610dd25780638d37252814610dfd57806392d0d15314610f61578063a52a36a114610f8c578063e395229214611086578063ed7417bf1461115d578063f739361714611234575b600080fd5b34801561012e57600080fd5b5061029d600480360360a081101561014557600080fd5b810190808035906020019064010000000081111561016257600080fd5b82018360208201111561017457600080fd5b8035906020019184600183028401116401000000008311171561019657600080fd5b91908080601f016020809104026020016040519081016040528093929190818152602001838380828437600081840152601f19601f820116905080830192505050505050509192919290803590602001906401000000008111156101f957600080fd5b82018360208201111561020b57600080fd5b8035906020019184600183028401116401000000008311171561022d57600080fd5b91908080601f016020809104026020016040519081016040528093929190818152602001838380828437600081840152601f19601f820116905080830192505050505050509192919290803590602001909291908035906020019092919080359060200190929190505050611398565b005b3480156102ab57600080fd5b50610397600480360360c08110156102c257600080fd5b81019080803590602001906401000000008111156102df57600080fd5b8201836020820111156102f157600080fd5b8035906020019184600183028401116401000000008311171561031357600080fd5b91908080601f016020809104026020016040519081016040528093929190818152602001838380828437600081840152601f19601f8201169050808301925050505050505091929192908035906020019092919080359060200190929190803590602001909291908035906020019092919080359060200190929190505050611534565b005b3480156103a557600080fd5b5061045f600480360360208110156103bc57600080fd5b81019080803590602001906401000000008111156103d957600080fd5b8201836020820111156103eb57600080fd5b8035906020019184600183028401116401000000008311171561040d57600080fd5b91908080601f016020809104026020016040519081016040528093929190818152602001838380828437600081840152601f19601f8201169050808301925050505050505091929192905050506116c4565b604051808060200180602001868152602001858152602001848152602001838103835288818151815260200191508051906020019080838360005b838110156104b557808201518184015260208101905061049a565b50505050905090810190601f1680156104e25780820380516001836020036101000a031916815260200191505b50838103825287818151815260200191508051906020019080838360005b8381101561051b578082015181840152602081019050610500565b50505050905090810190601f1680156105485780820380516001836020036101000a031916815260200191505b5097505050505050505060405180910390f35b34801561056757600080fd5b50610653600480360360c081101561057e57600080fd5b810190808035906020019064010000000081111561059b57600080fd5b8201836020820111156105ad57600080fd5b803590602001918460018302840111640100000000831117156105cf57600080fd5b91908080601f016020809104026020016040519081016040528093929190818152602001838380828437600081840152601f19601f8201169050808301925050505050505091929192908035906020019092919080359060200190929190803590602001909291908035906020019092919080359060200190929190505050611a40565b005b34801561066157600080fd5b5061071b6004803603602081101561067857600080fd5b810190808035906020019064010000000081111561069557600080fd5b8201836020820111156106a757600080fd5b803590602001918460018302840111640100000000831117156106c957600080fd5b91908080601f016020809104026020016040519081016040528093929190818152602001838380828437600081840152601f19601f820116905080830192505050505050509192919290505050611bd1565b6040518080602001878152602001868152602001858152602001848152602001838152602001828103825288818151815260200191508051906020019080838360005b8381101561077957808201518184015260208101905061075e565b50505050905090810190601f1680156107a65780820380516001836020036101000a031916815260200191505b5097505050505050505060405180910390f35b3480156107c557600080fd5b506107f2600480360360208110156107dc57600080fd5b8101908080359060200190929190505050611f25565b6040518080602001878152602001868152602001858152602001848152602001838152602001828103825288818151815260200191508051906020019080838360005b83811015610850578082015181840152602081019050610835565b50505050905090810190601f16801561087d5780820380516001836020036101000a031916815260200191505b5097505050505050505060405180910390f35b34801561089c57600080fd5b506108c9600480360360208110156108b357600080fd5b8101908080359060200190929190505050612008565b604051808060200180602001868152602001858152602001848152602001838103835288818151815260200191508051906020019080838360005b8381101561091f578082015181840152602081019050610904565b50505050905090810190601f16801561094c5780820380516001836020036101000a031916815260200191505b50838103825287818151815260200191508051906020019080838360005b8381101561098557808201518184015260208101905061096a565b50505050905090810190601f1680156109b25780820380516001836020036101000a031916815260200191505b5097505050505050505060405180910390f35b3480156109d157600080fd5b50610a8b600480360360208110156109e857600080fd5b8101908080359060200190640100000000811115610a0557600080fd5b820183602082011115610a1757600080fd5b80359060200191846001830284011164010000000083111715610a3957600080fd5b91908080601f016020809104026020016040519081016040528093929190818152602001838380828437600081840152601f19601f82011690508083019250505050505050919291929050505061217d565b6040518080602001878152602001868152602001858152602001848152602001838152602001828103825288818151815260200191508051906020019080838360005b83811015610ae9578082015181840152602081019050610ace565b50505050905090810190601f168015610b165780820380516001836020036101000a031916815260200191505b5097505050505050505060405180910390f35b348015610b3557600080fd5b50610b3e6124d1565b6040518082815260200191505060405180910390f35b348015610b6057600080fd5b50610c4c600480360360c0811015610b7757600080fd5b8101908080359060200190640100000000811115610b9457600080fd5b820183602082011115610ba657600080fd5b80359060200191846001830284011164010000000083111715610bc857600080fd5b91908080601f016020809104026020016040519081016040528093929190818152602001838380828437600081840152601f19601f82011690508083019250505050505050919291929080359060200190929190803590602001909291908035906020019092919080359060200190929190803590602001909291905050506124d7565b005b348015610c5a57600080fd5b50610c63612668565b6040518082815260200191505060405180910390f35b348015610c8557600080fd5b50610cb260048036036020811015610c9c57600080fd5b810190808035906020019092919050505061266e565b6040518080602001878152602001868152602001858152602001848152602001838152602001828103825288818151815260200191508051906020019080838360005b83811015610d10578082015181840152602081019050610cf5565b50505050905090810190601f168015610d3d5780820380516001836020036101000a031916815260200191505b5097505050505050505060405180910390f35b348015610d5c57600080fd5b50610d65612751565b604051808273ffffffffffffffffffffffffffffffffffffffff1673ffffffffffffffffffffffffffffffffffffffff16815260200191505060405180910390f35b348015610db357600080fd5b50610dbc612777565b6040518082815260200191505060405180910390f35b348015610dde57600080fd5b50610de761277d565b6040518082815260200191505060405180910390f35b348015610e0957600080fd5b50610ec360048036036020811015610e2057600080fd5b8101908080359060200190640100000000811115610e3d57600080fd5b820183602082011115610e4f57600080fd5b80359060200191846001830284011164010000000083111715610e7157600080fd5b91908080601f016020809104026020016040519081016040528093929190818152602001838380828437600081840152601f19601f820116905080830192505050505050509192919290505050612783565b6040518080602001878152602001868152602001858152602001848152602001838152602001828103825288818151815260200191508051906020019080838360005b83811015610f21578082015181840152602081019050610f06565b50505050905090810190601f168015610f4e5780820380516001836020036101000a031916815260200191505b5097505050505050505060405180910390f35b348015610f6d57600080fd5b50610f76612ad7565b6040518082815260200191505060405180910390f35b348015610f9857600080fd5b50611084600480360360c0811015610faf57600080fd5b8101908080359060200190640100000000811115610fcc57600080fd5b820183602082011115610fde57600080fd5b8035906020019184600183028401116401000000008311171561100057600080fd5b91908080601f016020809104026020016040519081016040528093929190818152602001838380828437600081840152601f19601f8201169050808301925050505050505091929192908035906020019092919080359060200190929190803590602001909291908035906020019092919080359060200190929190505050612add565b005b34801561109257600080fd5b506110bf600480360360208110156110a957600080fd5b8101908080359060200190929190505050612c6c565b6040518080602001878152602001868152602001858152602001848152602001838152602001828103825288818151815260200191508051906020019080838360005b8381101561111d578082015181840152602081019050611102565b50505050905090810190601f16801561114a5780820380516001836020036101000a031916815260200191505b5097505050505050505060405180910390f35b34801561116957600080fd5b506111966004803603602081101561118057600080fd5b8101908080359060200190929190505050612d4f565b6040518080602001878152602001868152602001858152602001848152602001838152602001828103825288818151815260200191508051906020019080838360005b838110156111f45780820151818401526020810190506111d9565b50505050905090810190601f1680156112215780820380516001836020036101000a031916815260200191505b5097505050505050505060405180910390f35b34801561124057600080fd5b506112fa6004803603602081101561125757600080fd5b810190808035906020019064010000000081111561127457600080fd5b82018360208201111561128657600080fd5b803590602001918460018302840111640100000000831117156112a857600080fd5b91908080601f016020809104026020016040519081016040528093929190818152602001838380828437600081840152601f19601f820116905080830192505050505050509192919290505050612e32565b6040518080602001878152602001868152602001858152602001848152602001838152602001828103825288818151815260200191508051906020019080838360005b8381101561135857808201518184015260208101905061133d565b50505050905090810190601f1680156113855780820380516001836020036101000a031916815260200191505b5097505050505050505060405180910390f35b6113a0613186565b60a06040519081016040528087815260200186815260200185815260200184815260200183815250905080600f876040518082805190602001908083835b60208310151561140357805182526020820191506020810190506020830392506113de565b6001836020036101000a038019825116818451168082178552505050505050905001915050908152602001604051809103902060008201518160000190805190602001906114529291906131bc565b50602082015181600101908051906020019061146f9291906131bc565b506040820151816002015560608201518160030155608082015181600401559050506010819080600181540180825580915050906001820390600052602060002090600502016000909192909190915060008201518160000190805190602001906114db9291906131bc565b5060208201518160010190805190602001906114f89291906131bc565b50604082015181600201556060820151816003015560808201518160040155505050600460008154809291906001019190505550505050505050565b61153c61323c565b60c060405190810160405280888152602001878152602001868152602001858152602001848152602001838152509050806007886040518082805190602001908083835b6020831015156115a55780518252602082019150602081019050602083039250611580565b6001836020036101000a038019825116818451168082178552505050505050905001915050908152602001604051809103902060008201518160000190805190602001906115f49291906131bc565b506020820151816001015560408201518160020155606082015181600301556080820151816004015560a082015181600501559050506008819080600181540180825580915050906001820390600052602060002090600602016000909192909190915060008201518160000190805190602001906116749291906131bc565b506020820151816001015560408201518160020155606082015181600301556080820151816004015560a08201518160050155505050600080815480929190600101919050555050505050505050565b6060806000806000600f866040518082805190602001908083835b60208310151561170457805182526020820191506020810190506020830392506116df565b6001836020036101000a0380198251168184511680821785525050505050509050019150509081526020016040518091039020600001600f876040518082805190602001908083835b602083101515611772578051825260208201915060208101905060208303925061174d565b6001836020036101000a0380198251168184511680821785525050505050509050019150509081526020016040518091039020600101600f886040518082805190602001908083835b6020831015156117e057805182526020820191506020810190506020830392506117bb565b6001836020036101000a038019825116818451168082178552505050505050905001915050908152602001604051809103902060020154600f896040518082805190602001908083835b60208310151561184f578051825260208201915060208101905060208303925061182a565b6001836020036101000a038019825116818451168082178552505050505050905001915050908152602001604051809103902060030154600f8a6040518082805190602001908083835b6020831015156118be5780518252602082019150602081019050602083039250611899565b6001836020036101000a038019825116818451168082178552505050505050905001915050908152602001604051809103902060040154848054600181600116156101000203166002900480601f01602080910402602001604051908101604052809291908181526020018280546001816001161561010002031660029004801561198a5780601f1061195f5761010080835404028352916020019161198a565b820191906000526020600020905b81548152906001019060200180831161196d57829003601f168201915b50505050509450838054600181600116156101000203166002900480601f016020809104026020016040519081016040528092919081815260200182805460018160011615610100020316600290048015611a265780601f106119fb57610100808354040283529160200191611a26565b820191906000526020600020905b815481529060010190602001808311611a0957829003601f168201915b505050505093509450945094509450945091939590929450565b611a4861327c565b60c06040519081016040528088815260200187815260200186815260200185815260200184815260200183815250905080600d886040518082805190602001908083835b602083101515611ab15780518252602082019150602081019050602083039250611a8c565b6001836020036101000a03801982511681845116808217855250505050505090500191505090815260200160405180910390206000820151816000019080519060200190611b009291906131bc565b506020820151816001015560408201518160020155606082015181600301556080820151816004015560a08201518160050155905050600e81908060018154018082558091505090600182039060005260206000209060060201600090919290919091506000820151816000019080519060200190611b809291906131bc565b506020820151816001015560408201518160020155606082015181600301556080820151816004015560a0820151816005015550505060036000815480929190600101919050555050505050505050565b60606000806000806000600b876040518082805190602001908083835b602083101515611c135780518252602082019150602081019050602083039250611bee565b6001836020036101000a0380198251168184511680821785525050505050509050019150509081526020016040518091039020600001600b886040518082805190602001908083835b602083101515611c815780518252602082019150602081019050602083039250611c5c565b6001836020036101000a038019825116818451168082178552505050505050905001915050908152602001604051809103902060010154600b896040518082805190602001908083835b602083101515611cf05780518252602082019150602081019050602083039250611ccb565b6001836020036101000a038019825116818451168082178552505050505050905001915050908152602001604051809103902060020154600b8a6040518082805190602001908083835b602083101515611d5f5780518252602082019150602081019050602083039250611d3a565b6001836020036101000a038019825116818451168082178552505050505050905001915050908152602001604051809103902060030154600b8b6040518082805190602001908083835b602083101515611dce5780518252602082019150602081019050602083039250611da9565b6001836020036101000a038019825116818451168082178552505050505050905001915050908152602001604051809103902060040154600b8c6040518082805190602001908083835b602083101515611e3d5780518252602082019150602081019050602083039250611e18565b6001836020036101000a038019825116818451168082178552505050505050905001915050908152602001604051809103902060050154858054600181600116156101000203166002900480601f016020809104026020016040519081016040528092919081815260200182805460018160011615610100020316600290048015611f095780601f10611ede57610100808354040283529160200191611f09565b820191906000526020600020905b815481529060010190602001808311611eec57829003601f168201915b5050505050955095509550955095509550955091939550919395565b600c81815481101515611f3457fe5b9060005260206000209060060201600091509050806000018054600181600116156101000203166002900480601f016020809104026020016040519081016040528092919081815260200182805460018160011615610100020316600290048015611fe05780601f10611fb557610100808354040283529160200191611fe0565b820191906000526020600020905b815481529060010190602001808311611fc357829003601f168201915b5050505050908060010154908060020154908060030154908060040154908060050154905086565b60108181548110151561201757fe5b9060005260206000209060050201600091509050806000018054600181600116156101000203166002900480601f0160208091040260200160405190810160405280929190818152602001828054600181600116156101000203166002900480156120c35780601f10612098576101008083540402835291602001916120c3565b820191906000526020600020905b8154815290600101906020018083116120a657829003601f168201915b505050505090806001018054600181600116156101000203166002900480601f0160208091040260200160405190810160405280929190818152602001828054600181600116156101000203166002900480156121615780601f1061213657610100808354040283529160200191612161565b820191906000526020600020905b81548152906001019060200180831161214457829003601f168201915b5050505050908060020154908060030154908060040154905085565b60606000806000806000600d876040518082805190602001908083835b6020831015156121bf578051825260208201915060208101905060208303925061219a565b6001836020036101000a0380198251168184511680821785525050505050509050019150509081526020016040518091039020600001600d886040518082805190602001908083835b60208310151561222d5780518252602082019150602081019050602083039250612208565b6001836020036101000a038019825116818451168082178552505050505050905001915050908152602001604051809103902060010154600d896040518082805190602001908083835b60208310151561229c5780518252602082019150602081019050602083039250612277565b6001836020036101000a038019825116818451168082178552505050505050905001915050908152602001604051809103902060020154600d8a6040518082805190602001908083835b60208310151561230b57805182526020820191506020810190506020830392506122e6565b6001836020036101000a038019825116818451168082178552505050505050905001915050908152602001604051809103902060030154600d8b6040518082805190602001908083835b60208310151561237a5780518252602082019150602081019050602083039250612355565b6001836020036101000a038019825116818451168082178552505050505050905001915050908152602001604051809103902060040154600d8c6040518082805190602001908083835b6020831015156123e957805182526020820191506020810190506020830392506123c4565b6001836020036101000a038019825116818451168082178552505050505050905001915050908152602001604051809103902060050154858054600181600116156101000203166002900480601f0160208091040260200160405190810160405280929190818152602001828054600181600116156101000203166002900480156124b55780601f1061248a576101008083540402835291602001916124b5565b820191906000526020600020905b81548152906001019060200180831161249857829003601f168201915b5050505050955095509550955095509550955091939550919395565b60015481565b6124df6132bc565b60c060405190810160405280888152602001878152602001868152602001858152602001848152602001838152509050806009886040518082805190602001908083835b6020831015156125485780518252602082019150602081019050602083039250612523565b6001836020036101000a038019825116818451168082178552505050505050905001915050908152602001604051809103902060008201518160000190805190602001906125979291906131bc565b506020820151816001015560408201518160020155606082015181600301556080820151816004015560a08201518160050155905050600a819080600181540180825580915050906001820390600052602060002090600602016000909192909190915060008201518160000190805190602001906126179291906131bc565b506020820151816001015560408201518160020155606082015181600301556080820151816004015560a0820151816005015550505060016000815480929190600101919050555050505050505050565b60035481565b60088181548110151561267d57fe5b9060005260206000209060060201600091509050806000018054600181600116156101000203166002900480601f0160208091040260200160405190810160405280929190818152602001828054600181600116156101000203166002900480156127295780601f106126fe57610100808354040283529160200191612729565b820191906000526020600020905b81548152906001019060200180831161270c57829003601f168201915b5050505050908060010154908060020154908060030154908060040154908060050154905086565b600560009054906101000a900473ffffffffffffffffffffffffffffffffffffffff1681565b60005481565b60025481565b606060008060008060006009876040518082805190602001908083835b6020831015156127c557805182526020820191506020810190506020830392506127a0565b6001836020036101000a03801982511681845116808217855250505050505090500191505090815260200160405180910390206000016009886040518082805190602001908083835b602083101515612833578051825260208201915060208101905060208303925061280e565b6001836020036101000a0380198251168184511680821785525050505050509050019150509081526020016040518091039020600101546009896040518082805190602001908083835b6020831015156128a2578051825260208201915060208101905060208303925061287d565b6001836020036101000a03801982511681845116808217855250505050505090500191505090815260200160405180910390206002015460098a6040518082805190602001908083835b60208310151561291157805182526020820191506020810190506020830392506128ec565b6001836020036101000a03801982511681845116808217855250505050505090500191505090815260200160405180910390206003015460098b6040518082805190602001908083835b602083101515612980578051825260208201915060208101905060208303925061295b565b6001836020036101000a03801982511681845116808217855250505050505090500191505090815260200160405180910390206004015460098c6040518082805190602001908083835b6020831015156129ef57805182526020820191506020810190506020830392506129ca565b6001836020036101000a038019825116818451168082178552505050505050905001915050908152602001604051809103902060050154858054600181600116156101000203166002900480601f016020809104026020016040519081016040528092919081815260200182805460018160011615610100020316600290048015612abb5780601f10612a9057610100808354040283529160200191612abb565b820191906000526020600020905b815481529060010190602001808311612a9e57829003601f168201915b5050505050955095509550955095509550955091939550919395565b60045481565b612ae56132fc565b60c06040519081016040528088815260200187815260200186815260200185815260200184815260200183815250905080600b886040518082805190602001908083835b602083101515612b4e5780518252602082019150602081019050602083039250612b29565b6001836020036101000a03801982511681845116808217855250505050505090500191505090815260200160405180910390206000820151816000019080519060200190612b9d9291906131bc565b506020820151816001015560408201518160020155606082015181600301556080820151816004015560a08201518160050155905050600c81908060018154018082558091505090600182039060005260206000209060060201600090919290919091506000820151816000019080519060200190612c1d9291906131bc565b506020820151816001015560408201518160020155606082015181600301556080820151816004015560a082015181600501555050506002600081546001019190508190555050505050505050565b600e81815481101515612c7b57fe5b9060005260206000209060060201600091509050806000018054600181600116156101000203166002900480601f016020809104026020016040519081016040528092919081815260200182805460018160011615610100020316600290048015612d275780601f10612cfc57610100808354040283529160200191612d27565b820191906000526020600020905b815481529060010190602001808311612d0a57829003601f168201915b5050505050908060010154908060020154908060030154908060040154908060050154905086565b600a81815481101515612d5e57fe5b9060005260206000209060060201600091509050806000018054600181600116156101000203166002900480601f016020809104026020016040519081016040528092919081815260200182805460018160011615610100020316600290048015612e0a5780601f10612ddf57610100808354040283529160200191612e0a565b820191906000526020600020905b815481529060010190602001808311612ded57829003601f168201915b5050505050908060010154908060020154908060030154908060040154908060050154905086565b606060008060008060006007876040518082805190602001908083835b602083101515612e745780518252602082019150602081019050602083039250612e4f565b6001836020036101000a03801982511681845116808217855250505050505090500191505090815260200160405180910390206000016007886040518082805190602001908083835b602083101515612ee25780518252602082019150602081019050602083039250612ebd565b6001836020036101000a0380198251168184511680821785525050505050509050019150509081526020016040518091039020600101546007896040518082805190602001908083835b602083101515612f515780518252602082019150602081019050602083039250612f2c565b6001836020036101000a03801982511681845116808217855250505050505090500191505090815260200160405180910390206002015460078a6040518082805190602001908083835b602083101515612fc05780518252602082019150602081019050602083039250612f9b565b6001836020036101000a03801982511681845116808217855250505050505090500191505090815260200160405180910390206003015460078b6040518082805190602001908083835b60208310151561302f578051825260208201915060208101905060208303925061300a565b6001836020036101000a03801982511681845116808217855250505050505090500191505090815260200160405180910390206004015460078c6040518082805190602001908083835b60208310151561309e5780518252602082019150602081019050602083039250613079565b6001836020036101000a038019825116818451168082178552505050505050905001915050908152602001604051809103902060050154858054600181600116156101000203166002900480601f01602080910402602001604051908101604052809291908181526020018280546001816001161561010002031660029004801561316a5780601f1061313f5761010080835404028352916020019161316a565b820191906000526020600020905b81548152906001019060200180831161314d57829003601f168201915b5050505050955095509550955095509550955091939550919395565b60a06040519081016040528060608152602001606081526020016000815260200160008019168152602001600080191681525090565b828054600181600116156101000203166002900490600052602060002090601f016020900481019282601f106131fd57805160ff191683800117855561322b565b8280016001018555821561322b579182015b8281111561322a57825182559160200191906001019061320f565b5b509050613238919061333f565b5090565b60c0604051908101604052806060815260200160008019168152602001600080191681526020016000801916815260200160008152602001600081525090565b60c0604051908101604052806060815260200160008019168152602001600080191681526020016000801916815260200160008152602001600081525090565b60c0604051908101604052806060815260200160008019168152602001600080191681526020016000801916815260200160008152602001600081525090565b60c0604051908101604052806060815260200160008019168152602001600080191681526020016000815260200160008019168152602001600080191681525090565b61336191905b8082111561335d576000816000905550600101613345565b5090565b9056fea165627a7a72305820b6b2c52b998d2b28c1a497df39fecd0626453261636e04cb50b67dcaf9c613cf0029",
  "source": "pragma solidity ^0.5.0;\r\n\r\ncontract SupplyChain {\r\n\r\n    uint public s = 1;\r\n    uint public m = 1;\r\n    uint public d = 1;\r\n    uint public r = 1;\r\n    uint public t = 1;\r\n\r\n\r\n    struct supplier {\r\n        bytes sid;\r\n        bytes32 sname;\r\n        bytes32 sloc;\r\n        bytes32 material;\r\n        uint scontact;\r\n        uint sexprice;\r\n    }\r\n\r\n    struct manufacturer {\r\n       \r\n        bytes mid;\r\n        bytes32 mname;\r\n        bytes32 mloc;\r\n        bytes32 mproduct;\r\n        uint mcontact;\r\n        uint mexprice;\r\n    }\r\n\r\n    struct distributor {\r\n       \r\n        bytes did;\r\n        bytes32 dname;\r\n        bytes32 dproduct;\r\n        uint dcontact;\r\n        bytes32 origin;\r\n        bytes32 destination;\r\n    }\r\n\r\n    struct retailer {\r\n       \r\n        bytes rid;\r\n        bytes32 rname;\r\n        bytes32 rloc;\r\n        bytes32 rproduct;\r\n        uint rcontact;\r\n        uint rexprice;\r\n    }\r\n\r\n    struct lot {\r\n\r\n        bytes lotno;\r\n        bytes grade;\r\n        uint mrp;\r\n        bytes32 testdate;\r\n        bytes32 expdate;\r\n    }\r\n\r\n    address public tester;\r\n    address owner;\r\n\r\n    mapping (bytes => supplier) s1;\r\n    supplier[] public sp;\r\n\r\n    mapping (bytes => manufacturer) m1;\r\n    manufacturer[] public mf;\r\n\r\n    mapping (bytes => distributor) d1;\r\n    distributor[] public db;\r\n\r\n    mapping (bytes => retailer) r1;\r\n    retailer[] public rt;\r\n\r\n    mapping (bytes => lot) l1;\r\n    lot[] public l;\r\n\r\n\r\n    function mat(bytes memory sid, bytes32 sname, bytes32 sloc, bytes32 material, uint scon, uint spr) public {\r\n                   \r\n        SupplyChain.supplier memory snew = supplier(sid, sname, sloc, material, scon, spr);\r\n        s1[sid] = snew;\r\n        sp.push(snew);\r\n        s++;\r\n    }\r\n\r\n    function pro(bytes memory mid, bytes32 mname, bytes32 mloc, bytes32 mpro, uint mcon, uint mpr) public {\r\n        \r\n        SupplyChain.manufacturer memory mnew = manufacturer(mid, mname, mloc, mpro, mcon, mpr);\r\n        m1[mid] = mnew;\r\n        mf.push(mnew);\r\n        m++;\r\n    }\r\n\r\n    function ship_info(bytes memory did, bytes32 dname, bytes32 dpro, uint dcon, bytes32 org, bytes32 dst) public {\r\n        \r\n        SupplyChain.distributor memory dnew = distributor(did, dname, dpro, dcon, org, dst);\r\n        d1[did] = dnew;\r\n        db.push(dnew);\r\n        ++d;\r\n    }\r\n\r\n    function goods(bytes memory rid, bytes32 rname, bytes32 rloc, bytes32 rpro, uint rcon, uint rpr) public {\r\n       \r\n        SupplyChain.retailer memory rnew = retailer(rid, rname, rloc, rpro, rcon, rpr);\r\n        r1[rid] = rnew;\r\n        rt.push(rnew);\r\n        r++;\r\n    }\r\n\r\n\r\n    function getmat(bytes memory i) public view returns(bytes memory,bytes32,bytes32,bytes32,uint,uint) {\r\n        return (s1[i].sid, s1[i].sname, s1[i].sloc, s1[i].material, s1[i].scontact, s1[i].sexprice);\r\n    }\r\n\r\n    function getpro(bytes memory i) public view returns(bytes memory,bytes32,bytes32,bytes32,uint,uint) {\r\n        return (m1[i].mid, m1[i].mname, m1[i].mloc, m1[i].mproduct, m1[i].mcontact, m1[i].mexprice);\r\n    }\r\n\r\n    function getshipinfo(bytes memory i) public view returns(bytes memory,bytes32,bytes32,uint,bytes32,bytes32) {\r\n        return (d1[i].did, d1[i].dname, d1[i].dproduct, d1[i].dcontact, d1[i].origin, d1[i].destination);\r\n    }\r\n\r\n    function getgoods(bytes memory i) public view returns(bytes memory,bytes32,bytes32,bytes32,uint,uint) {\r\n        return (r1[i].rid, r1[i].rname, r1[i].rloc, r1[i].rproduct, r1[i].rcontact, r1[i].rexprice);\r\n    }\r\n\r\n\r\n    function quality(bytes memory ll, bytes memory g, uint p, bytes32 tt, bytes32 e) public{\r\n        SupplyChain.lot memory lnew=lot(ll,g,p,tt,e);\r\n        l1[ll]=lnew;\r\n        l.push(lnew);\r\n        t++;\r\n    }\r\n\r\n    function getcert(bytes memory k) public view returns(bytes memory,bytes memory,uint,bytes32,bytes32) {\r\n        return(l1[k].lotno, l1[k].grade, l1[k].mrp, l1[k].testdate, l1[k].expdate);\r\n    }\r\n}\r\n",
  "sourcePath": "/Users/carl/Study/SupplyChainDapp/contracts/SupplyChain.sol",
  "compiler": {
    "name": "solc",
    "version": "0.5.0+commit.1d4f565a.Emscripten.clang"
  },
  "schemaVersion": "3.0.6",
  "updatedAt": "2019-04-14T04:01:03.591Z",
  "devdoc": {
    "methods": {}
  },
  "userdoc": {
    "methods": {}
  }
}